:10000000203700203D8B0000398B0000398B000029
:1000100000000000000000000000000000000000E0
:10002000000000000000000000000000398B00000C
:100030000000000000000000398B0000398B000038
:10004000398B0000398B0000398B0000398B0000A0
:10005000FD660000398B0000398B0000398B0000F1
:10006000398B0000CD740000DD740000ED740000D9
:10007000FD7400000D7500001D750000398B000037
:10008000398B0000398B0000198800002988000096
:10009000398800000000000000000000398B0000DB
:1000A000398B000000000000398B000000000000C8
:1000B0000000000000000000000000000000000040
:1000C0000000000000000000000000000000000030
:1000D0000000000000000000000000000000000020
:1000E0000000000000000000000000000000000010
:1061000009002000802000200000000001000000A5
:1061100008008000042100200000000001000000B1
:1061200007006400A0200020000000000100000023
:1061300006005000D82500200000000001000000EB
:10614000050001008F00002000000000000000009A
:1061500004000800F02800200000000000000000FB
:1061600003000400142900200000000000000000CB
:106170000200100078000020000000000000000075
:1061800001001800B01D002009A900000000000057
:10619000EC6601000800014010B5064C2378002B86
:1061A00007D1054B002B02D0044800E000BF0123BB
:1061B000237010BD0801002000000000606901008C
:1061C000084B10B5002B03D00749084800E000BF7A
:1061D00007480368002B00D110BD064B002BFBD0F5
:1061E0009847F9E7000000000C01002060690100F9
:1061F0006069010000000000044B1B78092B00D0EF
:1062000070470A22014B1A70FAE7C0462F0100209E
:10621000002803D00722034B1A7070470622014B57
:106220001A70FAE72F010020002803D00222034B46
:106230001A7070470822014B1A70FAE72F010020EC
:1062400030B583B0002824D00A0009320023FF258E
:1062500004E00133DBB21232984204D01478002CEF
:10626000F7D01D00F5E7FF2D0FD0EB005A195200B3
:1062700010328A185D196D004919087B074B00938D
:1062800005230221064CA04706E00222054B1A70A6
:1062900002E00222034B1A7003B030BD29620000F5
:1062A000690A01002F01002010B5074B1B780B3B3A
:1062B000FD22134203D00548054B984702E0F53A0A
:1062C000014B1A7010BDC0462F010020281D002070
:1062D0001DC0000010B54468E1790848084B984794
:1062E000E379002B04D080221203064B5A6110BDC3
:1062F00080221203034B9A61F9E7C046E05E010079
:10630000F15201000044004110B50222024B1A7004
:106310000248034B984710BD2F010020281D002084
:10632000B1BF000070B582B01A481B4B98471B499B
:106330001B481C4B98470E2827D0002200230092B0
:106340000193194E083231006846184DA8470400E1
:1063500001225242D317009201930932310068465C
:10636000A847002801D0002C08D10F4C2600083681
:106370000F4DA84720700134B442FAD10A480D4BA2
:1063800098470D4B984702B070BD05220B4B1A7011
:10639000D3E7C04611620000C11901000C000020C3
:1063A0003000002095D7000094000020194D010016
:1063B00081530100C9B60000A18D00002F0100200B
:1063C00070B586B0324B9847324B9847324B1A78AB
:1063D0000A2A25D89300314AD3589F46304B314A78
:1063E0009A6000221A73304A1A613048304B98473D
:1063F0003048314B9847284B1B78062B03D002229C
:10640000254B1A700CE00822234B1A7008E02B4A27
:106410008021890405202A4B984703221E4B1A70BD
:1064200006B070BD16266E4400233380254C01252E
:106430006572254B1B691B03DB0FE3711623237267
:10644000A571A11C0220214B98472580204B029367
:106450000195204B1B78009323000B223100022072
:106460001D4CA047002803D10A220B4B1A70D7E716
:10647000184A1378013313700922074B1A70CFE7BB
:106480000748164B98470B22034B1A70C8E7C046C3
:1064900069DA0000ADA800002F010020B45E010001
:1064A000281D002010270000A9620000D56200000E
:1064B0006DF0000009630000AD19010041620000A9
:1064C000750B0100240100200044004149DB00005D
:1064D000F96100003001002015DC00001DC0000043
:1064E00070B50020084B98470500084CFA21890038
:1064F000A047074B186007492800A047064B1860C3
:106500000522064B1A6070BD11850000C1240100F0
:106510000000002040420F000400002010E000E0D6
:1065200030B5084B1C68084A002580214902013813
:1065300007D3002CFBD05460956013680B42FCD04D
:10654000F5E730BD0400002010E000E00C4B1B68B4
:10655000002B06D1EFF31083002B07D00022094B4C
:106560001A70074A136801331360704772B6BFF39D
:106570005F8F0022044B1A700132024B1A70F0E751
:10658000340100203801002008000020084B1A6860
:10659000013A1A601B68002B09D1064B1B78002BAF
:1065A00005D00122044B1A70BFF35F8F62B67047AB
:1065B000340100203801002008000020F0B5C64654
:1065C00000B582B001AC012666700027A770267066
:1065D00021001320274DA847274B984680231B03F3
:1065E000424693612770667021001C20A8476670A0
:1065F000A770267021005220A84721003E20A847FE
:1066000021003F20A84721002F20A8472100142067
:10661000A8478022D202194B9A61194B8022D205D9
:106620009A61802212069A61802212029A61802366
:106630005B0342469361277021005320A847114A0B
:10664000116A80239B030B43136204220E4B1A80B2
:106650006B469E70DF7005236A461370567069465C
:1066600009200A4CA04769460C20A04702B004BC90
:106670009046F0BD8D6A0000004400410045004195
:106680008044004100040040005400422187000083
:106690001723002A01D0180070478B00064A9B5828
:1066A000002B03D0834205D01D23F4E789008850D6
:1066B0000023F0E70023EEE7401D00201723002908
:1066C00001D01800704700221F2800D8024A012379
:1066D0008340D3600023F4E700180040172300290B
:1066E00001D01800704700221F2800D8024A012359
:1066F000834093600023F4E70018004070B5002247
:10670000104B1A70002310491F25104E0D4C0AE043
:106710000D4908E023780133DBB223700F2B10D82A
:1067200000211F2BF4D9280018400122824008695B
:106730001042EFD00A619B009B59002BEAD098478A
:10674000E8E770BD3C1D002000180040401D0020FF
:10675000044A137802210B43137053785BB2002B69
:10676000FBDB70470018004000B583B0124A936904
:1067700040210B43936101A900230B7005200F4BAF
:10678000984705200E4B98470E4A137801210B437A
:10679000137053785BB2002BFBDB0B4B19004031BD
:1067A000002204C39942FCD11022084B1A60084B06
:1067B000984703B000BDC046000400402986000091
:1067C0009D85000000180040401D002000E100E011
:1067D000516700000023036043600122027242728D
:1067E00083720233C3727047F0B583B005000C00AA
:1067F00001A900234B70CB7023790B70237A8B7027
:106800002078154B984700201F2D00D813480722E9
:106810002A409200E77AA37A002B01D008231F4375
:10682000EB089B00C31899690F269640B143974027
:106830003A000A439A61637A002B06D14369012228
:10684000AA409343436103B0F0BD42690123AB40CA
:1068500013434361F7E7C04621870000001800405A
:1068600010B51E4AD36904210B43D3611C4B20226F
:10687000FF321A831A7D0523D20701D4180010BDF8
:1068800003781B02C022920013404178C901FF2205
:106890000A401343817849001E220A401343C278FC
:1068A00092048021C9020A40134302791204C021D4
:1068B00089020A4013430A4A536093685B035B0FE3
:1068C000084908249C400C8093684B8043780B71E6
:1068D000138BDB05DB0F1B01D0E7C0460004004033
:1068E000004000413C01002030B50400224A1088DD
:1068F000538843438B4206D28022920118201F4BBB
:10690000CB1893420ED81E4B5D688022D2022A43D8
:106910005A602022FF321A831B7DDB0703D4184BF9
:106920005D60052030BD452C22D8A300154AD35800
:106930009F46134B1B8BDB0503D5114B5D6010206D
:10694000F0E7890849000E4BD96103E08908490046
:106950000B4BD961A52000020443094B1C80190090
:1069600001220B7D1342FCD0054B5D600020D9E76E
:10697000034B5D601720D5E73C01002000C07FFF7E
:1069800000400041F45E0100F8B5254B1D885B888E
:106990006B431824834201D22000F8BD6B1E1842BD
:1069A000FAD1013C9542F7D31E4B1B7D123CDB070D
:1069B000F2D51D4C1B4B1C801D0001242B7D234256
:1069C000FCD02024FF34174B1C83002A22D0012343
:1069D00005009D430023571E09E0CE187678360245
:1069E00034432C8002339BB202359A4204D9CC5CEA
:1069F000BB42F2DBA4B2F4E7094B1B790024002B65
:106A0000CAD13F2AC8D8002201000420074B98476A
:106A10000400C1E7024B1B790024002BF3D0BBE735
:106A20003C0100200040004144A5FFFFE968000050
:106A3000134B1A885B8853431821834201D2080004
:106A400070479200013A1042F9D10E4B1B7D133969
:106A5000DB07F4D50B4B2022FF321A83800840005D
:106A6000D861094A1A80190001220B7D1342FCD01B
:106A7000044B198B1C200140481E81418900DEE730
:106A80003C0100200040004102A5FFFF00B583B09B
:106A900001AB80221A700A785A704A789A708A7804
:106AA000DA701900014B984703B000BD2187000040
:106AB00001680722CB691A42FCD17047F0B5D6466F
:106AC0004F464646C0B58AB006000F00140031603C
:106AD0000800974B9847974A116A851C0123AB40E1
:106AE0000B43136209A9237B0B701430C5B2280035
:106AF000914B98472800914B9847207B0021904B61
:106B000098473B681C209B0705D50AB01CBC9046E3
:106B10009946A246F0BD3B681738DB07F5D414232D
:106B20003B60336898461800814B984705008023E6
:106B300008AA137000235370012208A98A70CB7031
:106B4000E069276A002800D1AFE008AB1870022383
:106B500008AA5370000CC0B211007A4B9847002F5E
:106B600000D1A7E008AB1F70022308AA53703F0CA6
:106B7000F8B21100734B9847A38AF380E38A3381FC
:106B8000237E8022002B04D16F4B9B789B07DB0F69
:106B9000DA01A16823690B4313432422A25C002A73
:106BA00002D08022D2051343A26A13432C22A25C96
:106BB000002A03D180229204914202D18022120540
:106BC00013432D22A25C002A02D080221204134318
:106BD0002E22A25C002A02D08022D2031343424616
:106BE000126813434246136080235B005360280001
:106BF0001430C0B2554B98470790FA239B00226887
:106C00005A43914663689A46514DA84700900191B6
:106C10004B465800A84702900391208EA847049045
:106C200005914C4F4C4A4D4B00980199B8470200D2
:106C30000B0004980599B847494E0022494BB047CC
:106C4000049005914846A84702000B000498059956
:106C5000B84702000B00444D00980199A847029ADA
:106C6000039BB0470022414BA847029A039B404D2B
:106C7000A847404B9847050080239B04A2689A428E
:106C80001ED003004020FF2D00D93EE70024002045
:106C9000FF251D40240625430004FF231B04184044
:106CA00005434346DD6000202FE700214046324B7C
:106CB00098474AE7012140462F4B9847070051E784
:106CC000FA26B60053465E430098019902000B0075
:106CD000234CA0470090019130001D4B98470022A3
:106CE000264BB84702000B0000980199204CA047A2
:106CF00000221E4B1C4CA0471E4B9847041E0CD074
:106D0000310007981E4B98470238001B2B00FF2DBF
:106D10000CD8FF28BCD94020F7E67100481E079B1D
:106D20009C466044164B98470138EFE74020ECE65C
:106D30002574000000040040298600009D850000A5
:106D4000617200002187000000200041458600009C
:106D5000C94B01003540010095D626E80B2E113EA7
:106D6000AD33010000002440354501000000F03F34
:106D7000CD390100614B0100AD72000000000840F8
:106D8000C1240100F8B504000768084EB047256823
:106D90002000B04783232B752B762B680222934368
:106DA0002B602000B04701233B60F8BDB16A0000B2
:106DB00003681A7E920707D502221A765B8B9B071F
:106DC0004120DB17184070475A8B520706D5596887
:106DD000C02292020A435A601820F4E70020F2E72A
:106DE00030B50268002301240225117E21420BD117
:106DF000117E294206D101339BB201899942F4D810
:106E0000122002E0002000E0002030BD10B5046830
:106E100062688023DB02134363606162024B984720
:106E20000123237610BDC046E16D0000F0B5DE46BB
:106E300057464E464546E0B583B00600894605688C
:106E40004C882B681B01DB0F9A464B7A002B2BD109
:106E50006B68584A13406B604B461B7A002B27D156
:106E60004B461B885B004A46527A92031343012229
:106E700013436B623000504B984701905346002BF0
:106E800003D04B465B88012B3BD06B68494A1340CB
:106E90006B60019B002B3AD0019803B03CBC90463C
:106EA0009946A246AB46F0BD897A444B9847CFE756
:106EB0004B461B885B004A46527A9203134380225A
:106EC000120213436B6230003B4B984701906B6892
:106ED000384A13406B600028DED13000384B9847A9
:106EE00001900028D8D14B461B881B0A78221343F7
:106EF0005B004A46527A920301210A4313436B62B4
:106F0000B8E76A688023DB0213436B60C1E7300097
:106F10002B4B984701900028BED1013CA4B280467B
:106F2000284B9B4615E0012C20D03000264B98477B
:106F300043465F1CBFB22823EB5C4A465268414679
:106F4000535430001C4B9847013CA4B2002815D183
:106F5000B8465C4514D06B8B9B0627D5F37A002B83
:106F6000E3D05346002BDED1002CDED16A688023AB
:106F7000DB0213436B60013CA4B2EAE7B846019020
:106F8000B37A002B09D130000F4B98472823EA5CD5
:106F90004B465B6841465A547EE730000A4B98479F
:106FA0006A68C0239B0213436B60ECE741230193A3
:106FB00072E7C046FFFFFBFFE16D00000D6E0000B1
:106FC000B16D0000FFFF0000B16A0000F0B5DE46C1
:106FD00057464E464546E0B583B006000F000568AB
:106FE0004C88324B98477B7A002B1DD16B68304A16
:106FF00013406B603B7A002B1BD03B885B007A7A96
:10700000920313438022120213436B623000294B18
:1070100098470190002813D0019803B03CBC9046DB
:107020009946A246AB46F0BDB97A3000224B98474C
:10703000DCE73B885B007A7A920313436B62E5E7F7
:1070400030001E4B9847031E0190E5D1A046002456
:1070500020339946154B9B46164B9A46444515D00E
:107060006B8B4A4613421DD03000D8477B681A5DAF
:107070002823EA543000D047002806D16B8B013416
:107080005B07EBD51E23019300E00190B37A002B40
:10709000C2D03000054B98476A68C0239B02134357
:1070A0006B60B9E741230193B6E7C046B16A0000BF
:1070B000FFFFFBFFE16D00000D6E0000B16D0000F1
:1070C00010B501238372C372014B984710BDC046AF
:1070D0002D6E000010B5002383720133C372014B83
:1070E000984710BDCD6F0000F0B5DE4657464E46BE
:1070F0004546E0B587B08046049116001F00002287
:10710000002300218B463F24012021000096019797
:107110005C4603944446059413E02024641A050059
:10712000E540A84614E0009C019D121BAB415C4663
:107130004D462C43A346039C45462C4303940139FA
:1071400025D3202464420C19E7D40500A540A846A5
:1071500004008C40A14692185B4114001D00059E5E
:107160004F463E40B446049E47463E40B2466646C1
:1071700057463E4303D00600264332002B00009CB6
:10718000019D9D42DBD8CED19442D8D8CBE7039B5A
:107190005846190007B03CBC90469946A246AB46FB
:1071A000F0BD10B5490840230024814202D21800E6
:1071B00010BD1C00091A631C9BB28842F9D94023F8
:1071C000FF2CF4D814800023F1E7FFFFF0B583B063
:1071D0000F00160008AA117804004C434022BC425C
:1071E00002D9100003B0F0BD002B14D1020008003A
:1071F0000021194CA04701003A0000230020174C41
:10720000A04700220123121A8B41120C1B041A43BF
:1072100032800022E5E70022012BF9D10A00002389
:1072200000210D4CA04702000B0000920193380092
:1072300000210A4CA047050080239B014022984270
:10724000CFD8790FF800009A019BA047EA00821A74
:10725000D2B252032A43DBE721280100E970000083
:1072600010B582B004000E4B1B78002B07D000290C
:1072700005D10B4B5B78834210D01D200CE001A997
:107280000C701320074B98471320074B9847044B6B
:107290005C7001221A70002002B010BD0020FBE7D4
:1072A00044010020298600009D850000404B984243
:1072B00031D00AD93F4B98424DD03F4B98425AD0DB
:1072C0003E4B984237D0002070473D4B98420CD03F
:1072D0003C4B9842F7D1012917D000295DD00229F3
:1072E00015D0032915D00020EEE7012907D0002989
:1072F00051D0022905D0032905D00020E4E7324807
:10730000E2E73248E0E73248DEE73248DCE732487D
:10731000DAE73248D8E7012907D000293FD002290F
:1073200005D0032905D00020CEE72D48CCE72D4815
:10733000CAE72D48C8E7012907D0002931D0022922
:1073400005D0032905D00020BEE72848BCE728481F
:10735000BAE72848B8E7012907D0002923D0022935
:1073600005D0032905D00020AEE72348ACE7234829
:10737000AAE72348A8E7012907D0002915D0022948
:1073800005D0032905D000209EE71E489CE71E4833
:107390009AE71E4898E71E4896E7032094E71D48A1
:1073A00092E71D4890E71D488EE71D488CE7C046D0
:1073B0000010004200180042001C0042001400426D
:1073C00000080042000C0042030005000300060014
:1073D000030007000300010003001E0003001F005C
:1073E00002000D0002000E0002000F000300110059
:1073F000030012000300130005003F0005003E00DB
:1074000005005200030017000300180003001900D4
:107410000300040002000C000300100005005300EC
:107420000300160030B587B00B4B6A4632CB32C230
:1074300032CB32C2009B83420BD001239A006946B3
:107440005258824206D00133062BF7D1002007B0F4
:1074500030BD0023D8B2FAE70C6001007047FFFF8F
:10746000F0B50A4B1B78002B0CD1094F094E0A4D81
:107470000024DE515A1914600433182BF9D101226B
:10748000024B1A708000024BC150F0BD4601002033
:10749000480100205D740000801D002000B583B00D
:1074A00009236A461370013353700133937001331B
:1074B000D3700133137101335371034B98476B46FB
:1074C000185603B000BDC0462574000010B5024B2D
:1074D0001B680020984710BD4801002010B5024BE2
:1074E0005B680120984710BD4801002010B5024B91
:1074F0009B680220984710BD4801002010B5024B40
:10750000DB680320984710BD4801002010B5024BEE
:107510001B690420984710BD4801002010B5024B9C
:107520005B690520984710BD48010020F0B5D6469C
:107530004F4680B58BB081460F00140003001960E0
:107540000B689B0709D40B680520DB0700D498E083
:107550000BB00CBC91469A46F0BD936A0593D36A72
:107560000693136B0793536B0893002605AB0193A7
:107570000AE03800934B98470CE00F2318408142F3
:107580002DD10136042E2FD0F1B2B300019A9858B4
:107590000028EED0431CF4D00104090C000CC3B247
:1075A0009C460023020605D463465B09DB01864A3C
:1075B000924653441F22604602409818403000789B
:1075C000824680205546ED07D9D552089B183033A6
:1075D0001878C0B26346DB07CFD50009CFE7002398
:1075E0004A4613601C20B3E71320784B9847227853
:1075F0000025012A27D06368A2681343E268134379
:107600002B43227C617C002901D080210B43A17C8B
:10761000002902D0802189020A43E17C002902D09E
:10762000802189000A43217D002902D0802189011F
:107630000A433968022003438B4218D000234A468C
:1076400013601C2084E704AA0100A069604B9847DE
:1076500003001720002B00D07AE73B7BDBB204AAA3
:10766000127805309A4200D072E70C35C3E77B6888
:107670009342E3D123784A465371237C93710020CF
:1076800066E70800534B9847534A116A851C01234B
:10769000AB400B43136209A92426A35D0B70143081
:1076A000C5B228004D4B984728004D4B9847A05D28
:1076B00000214C4B98472378012B19D04B461E686C
:1076C00004AB80221A7000225A7001219970DA707E
:1076D0002378002B01D104AB9A70A36A0593E36A67
:1076E0000693236B0793636B0893002705AD11E0A6
:1076F0003B680C2213433B60E0E73000314B984776
:107700000DE004A90870000CC0B2374B9847013750
:10771000042F07D0F9B2BB0058590028EDD0431C04
:10772000EFD1F4E723784A465371237C9371A37C0D
:10773000D371237D1372002202ABDA802378012BF0
:1077400028D06368A2681343E2681343217C627CFB
:10775000002A03D1254A9278920701D5802213434B
:10776000A27C002A02D0802292021143E27C002AED
:1077700002D0802292001143227D002A02D0802272
:107780009201114332681343336073680B43736093
:107790000020DDE64B4618680E4B98471430C0B207
:1077A0000A4B9847010002AB9A1DA069084B984705
:1077B00003001720002B00D0CAE602AB06331B786B
:1077C0003373BEE7AD7200000044004145860000FF
:1077D000A371000025740000000400402986000009
:1077E0009D8500006172000021870000002000419B
:1077F00010B544791523012C01D0180010BD047A6E
:107800000023002CF9D1002A58D04B78002B44D00B
:1078100003681B7EDB0710D40A78D10900230029F6
:1078200004D15309DB012E498C4663441F211140CA
:1078300001228A409A610523DFE70A78D4090023F0
:10784000002C04D15309DB01254CA44663441F24BA
:1078500014400122A2405A6103681A7ED20701D562
:107860008A789A62C2790023002AC6D1026804216C
:10787000137E0B42FCD0117E00234907BDD5538BEC
:107880005B0701D5042353838379012B02D0936ACC
:107890000023B2E7936A0023AFE70A78D1090023F7
:1078A000002904D15309DB010D498C4663441F2193
:1078B000114001228A405A6100239EE70A78D109CB
:1078C0000023002904D15309DB0105498C46634498
:1078D0001F21114001228A409A6100238DE7C04692
:1078E00000440041F0B5DE4657464E464546E0B5F9
:1078F00091B005000C00160029600800BA4B9847AB
:10790000020023680520DB0706D511B03CBC904679
:107910009946A246AB46F0BD236817309B07F4D4C6
:10792000B249086A971C0123BB4003430B620FA9AD
:107930002D27F35D0B701432D3B202931800AC4BB9
:1079400098470298AB4B9847F05D0021AA4B9847A7
:10795000F37A6B712423F35CAB712523F35CEB7139
:10796000F37E2B72337F6B722B68984618009E4B08
:107970009847143000220E2306A98C4663441A80CF
:10798000328A02928023DB019A4200D19AE00FD919
:10799000C023DB01029A9A4200D18EE080231B02B1
:1079A0009A4200D01BE1032306930023079308E0CB
:1079B00080239B019A4200D011E1102306930F3BD4
:1079C000079333680593F3689B4673690393337E8B
:1079D00004932623F35C9A4673689946002B00D1E2
:1079E0009CE080235B05994500D180E0737E002BED
:1079F00002D0B37E424693730E2306AA9446634494
:107A00001B8842469381059B5A461343039A1343AE
:107A10004A461343029F1F43049B1B021F435346C6
:107A20005B071F432723F35C002B01D104331F4363
:107A3000737E9B02327F52021343727F1202134302
:107A40002422B25C520413432522B25C1204134375
:107A5000B17AF27A114319433389FF2B00D181E0C7
:107A600080225204174319432C23F35C002B03D1CB
:107A7000624B9B789B0701D580231F432A68D369FB
:107A8000002BFCD1434659602A68D369002BFCD1F6
:107A900043461F600EAB80221A7000225A70DA70C3
:107AA0009A70336B0A93736B0B93B36B0C93F36BFA
:107AB00002930D9300270AAE63E008230693073B69
:107AC00007937EE733680593F3689B4673690393D6
:107AD000337E04932623F35C9A4673689946002B01
:107AE00018D080235B05994501D0002025E027238D
:107AF000F35C002B00D079E7336A1F00C0B2404B23
:107B0000984701000E2206AB9C46624438003D4B6C
:107B1000984712E008230693002307932723F35C7A
:107B2000002B0ED0069B0093079B0E2206A98C46C5
:107B30006244B16A306A344FB847002800D0E4E6A6
:107B400054E7336A1F00C0B22D4B98470100069BD3
:107B50000093079B0E2206A88446624438002A4FF1
:107B6000B847EAE7F37E002B00D17DE78023DB04F2
:107B70001F4379E72000254B984707E00137042F82
:107B80000DD0F9B2BB0098590028F3D0431CF5D0B2
:107B90000EA90870000CC0B21D4B9847EEE70023F9
:107BA000EB602B616B61AB61EB612B62AB626B6273
:107BB0000022EB85AB853033EA540133EA540133BC
:107BC000EA540133EA542868074B984704001149E6
:107BD000114B9847A400114BE550002095E6102367
:107BE000069300230793ECE6257400000004004090
:107BF000298600009D850000617200000020004180
:107C000045860000A3710000CD710000AD72000038
:107C100021870000497D000061740000801D002064
:107C2000C2791C23002A01D118007047C28D92B27C
:107C3000173B002AF8D1026811850221137E0B42FE
:107C4000FCD00023F0E782791C23002A01D1180020
:107C50007047828D92B2173B002AF8D10268107EDD
:107C60004007F4D5538BDBB298061DD0980703D597
:107C7000022353831833EAE7580703D504235383B9
:107C80001A33E4E7D80703D5012353831233DEE721
:107C9000D80603D5102353833233D8E79B0603D588
:107CA000202353832133D2E7138D0B800023CEE7AB
:107CB000F0B5D64600B584B0040001911720002A23
:107CC00003D104B004BC9246F0BDA3790530002B6B
:107CD000F7D02668013A93B29A460025042719E0A6
:107CE000002302AAD380911D2000154B984700283D
:107CF000E7D1691C89B202ABDB88019A53556279DE
:107D0000012A14D00D005346013B9BB29A460D4BFD
:107D10009A45D6D0337E3B42E2D10A4B327E3A427C
:107D2000DED1012B09D0013B002BF7D1D8E702357A
:107D3000ADB21B0A019A5354E5E71220C1E7C046D1
:107D4000477C0000FFFF0000F8B58000624BC5587B
:107D50002C68E369002BFCD1237EA67D1E403023D6
:107D6000EB5C3122AF5C1F40F30722D5EB8D9BB259
:107D7000002B1CD0AA6A1378DBB2511CA962697966
:107D800001290ED09BB2DB05DB0D2385EB8D013B7A
:107D90009BB2EB85002B0CD1013323750133A37506
:107DA00007E0517809020B430232AA62EBE7012394
:107DB0002375B30706D50223237500223133EA5415
:107DC000FB071AD4730765D5AB8D9BB2002B5FD030
:107DD000638BDBB21A0714D43F221340002B34D03C
:107DE0009A0711D51A223223EA54303B63837B076A
:107DF00050D528006B6998474CE02800EB689847FD
:107E0000E0E737221340E9E75A0705D51E2232235F
:107E1000EA542E3B6383EAE7DA0705D513223223BF
:107E2000EA54313B6383E2E7DA0605D54222322386
:107E3000EA54223B6383DAE720221A42D7D0213268
:107E40003223EA54123B6383D1E7238DDB05DB0D3C
:107E5000DAB2696A0A706A6A511C69626979012931
:107E600010D0AB8D013B9BB2AB85002B12D10433FC
:107E7000237500222E33EA54BB070BD528002B694B
:107E8000984707E01B0A53706B6A01336B62E8E79F
:107E900004232375F30604D5102323752376FB06EC
:107EA0000ED4B30604D52023237523763B070BD4C9
:107EB000330704D5082323752376BB0608D4F8BD01
:107EC0002800EB699847ECE72800AB699847EFE793
:107ED0002B6A28009847F2E7801D002010B508287B
:107EE00003D880001C4B1B589F46002032E01B4BE0
:107EF00018692FE01A4B1B6A9B059B0F1948D84045
:107F000028E0164B586925E0144B1B6800209B079E
:107F100020D513491022CB681A42FCD00F4B1A68A7
:107F200024231340042B01D00F4813E000200F4BF3
:107F300098470A4B9B681B041B0C58430AE05023CC
:107F4000074AD35C00205B0704D5044BD86801E0E6
:107F50008020000210BDC0462460010060010020A6
:107F60000008004000127A00006CDC024586000028
:107F700070B50C490B6A047885784078012210406E
:107F800080014026B34303432A40D201802083432B
:107F900013430322224012020348034013430B629F
:107FA00070BDC04600080040FFFCFFFFF0B5CE46A4
:107FB000474680B5194B99469B6941788C460578B0
:107FC0000679C7784479807801210840800004222E
:107FD0009343034360460840C00004329343034385
:107FE0003800084080014027BB430343300008406D
:107FF000C0018026B3430343072005402D020848F3
:1080000003402B4321400903064803400B434A46E3
:1080100093610CBC90469946F0BDC04600080040F4
:10802000FFF8FFFFFFEFFFFFF0B5DE4657464E4675
:108030004546E0B50100264B9B469B8A4578007873
:108040004242424191468878CA7894460A799046DD
:108050004E7B0F7B8C7B8A681E494A6101214A4610
:1080600092009146042293434A46134342460A40F3
:10807000D2009046082293434246134362460A4088
:108080001201944610229343624613430840400174
:108090002022934303430F40BF01402083433B43CF
:1080A0000E40F601403083433343793805402D02BA
:1080B000094803402B4321400903084803400B4370
:1080C0005A4693823CBC90469946A246AB46F0BDC8
:1080D0000008004060010020FFF8FFFFFFEFFFFFF6
:1080E00010B5037A9B061B0C42899205920D13432F
:1080F00018494B608379C2791343428884882243AC
:1081000013434278D20113430B600378042B11D040
:10811000202B0ED1037B9B06028A1343C2891204D3
:108120000D490A4013430B4A936011680B4B0B43F4
:10813000136010BD037B9B06028A1343C28912049D
:1081400005490A401343034A9360136804210B4313
:108150001360EEE7600100200000FF03240400002C
:10816000082803D88000254B1B589F46172044E061
:10817000234A136A02210B43136200203DE0204A88
:10818000936902210B439361002036E01C4A138A55
:1081900002210B43138200202FE0194A938A022107
:1081A0000B439382002028E016490B6802221343F8
:1081B0000B60134B9A8419000E32CB681A42FCD024
:1081C000104A91680E4BD96252689A6200229A84D2
:1081D00019001032CB681A42FCD00A4B1B689BB2C4
:1081E000074A9384002008E0054944228B5C022062
:1081F00003438B54002000E00020704748600100DA
:108200000008004060010020F0B5DE4657464E46AB
:108210004546E0B591B0C222D200654B9A60654AEE
:1082200053681E218B431A390B435360032201AB61
:108230001A700024604DE0B201A9A8470134252C32
:10824000F9D10CA800230370802212028260C3704F
:10825000012202710373837306214170827043739C
:10826000564B98470520564B984751490222CB68F8
:108270001A42FCD04E498B8A802213438B82514C88
:108280002368DB048A695B0E1B044F4802401343DA
:108290008B610AA801234370837003710722027067
:1082A00000254571C370494B98470420444B9847BB
:1082B00005AB00225D809D809A71DA713F21598162
:1082C0003B3919705A7023689B0E3F2B6DD005A85F
:1082D00003723F4B03820323994603731F23C38119
:1082E0003C4B984704A800254570057085703A4BB3
:1082F00098470620324B9A469847384B984701AC2E
:10830000657025726572052323701B339846636080
:1083100021000120324FB8470120324EB04765702E
:10832000657204232370434663601F3B9B462372A0
:1083300021000220B8470220B0476570257265729F
:108340004B4623704346636021000420B847042055
:10835000B0475B46237021000020174B9847002050
:10836000214B98470720D0471149D022CB681340B2
:10837000D02BFBD11D4A0023137253729372D37218
:1083800001A901224A604B700B724B7207330B70CC
:108390000020134B98470020124B984711B03CBC6B
:1083A00090469946A246AB46F0BD203B8FE7C046BB
:1083B000000800400040004129860000298000009C
:1083C0006181000024608000FFFF80FFAD7F00001E
:1083D0001BB7FFFFE1800000717F0000F183000008
:1083E00015840000CD8400009D850000000400403D
:1083F000064A936908210B4393610122044B1A70CA
:1084000019000B781342FCD17047C04600040040AD
:10841000000C004070B5060004000D782D020543E5
:108420004B78002B02D08023DB021D434B7A002BBC
:1084300002D080231B031D434868012810D9431E26
:10844000184234D1022830D90223002201325B00C5
:108450009842FBD812023243140080235B031D4371
:108460000B7A002B02D080239B031D43134A5378C1
:108470005BB2002BFBDB124B9847124B1E700F4A6E
:1084800053785BB2002BFBDB0C4B9C601A005378DB
:108490005BB2002BFBDB094A5368802149020B4089
:1084A0001D435560084B984770BD0022D2E7040277
:1084B000344380239B021D43D2E7C046000C00409A
:1084C0004D650000080C00408D65000010B50400EB
:1084D0000B4A53785BB2002BFBDB0A4B98470A4BE5
:1084E0001C70074A53785BB2002BFBDB044A5168CF
:1084F00080235B020B435360044B984710BDC0467A
:10850000000C00404D650000040C00408D6500002B
:1085100070B504001A4A53785BB2002BFBDB194B91
:108520009847194B1C70164A53785BB2002BFBDB43
:10853000134E7068C004C00E144B98470500124BD0
:108540001C707668F602F60F114B1C700C4A5378BB
:108550005BB2002BFBDB0A4B9C682402240C0D4B06
:108560009847002E07D1012C07D9210028000A4B7B
:108570009847050001E00134E540280070BDC04681
:10858000000C00404D650000040C0040DD7E000042
:10859000080C00408D650000C124010010B50400E6
:1085A000064B9847064B1C70064A53888021C90128
:1085B0000B435380044B984710BDC0464D650000E7
:1085C000020C0040000C00408D65000010B5040056
:1085D0000F4B98470F4B1C700F4A53881B05180F01
:1085E00053880E490B40538053880D490B405380EC
:1085F00011008022D2014B881342FCD106494A88DF
:1086000003020648024013434B80064B984710BDB7
:108610004D650000020C0040000C0040FFF0FFFF21
:10862000FFBFFFFF8D65000010B50C7824020443E6
:10863000024B9847A4B2024B5C8010BDCD85000070
:10864000000C004010B50400064B9847064B1C7008
:10865000064B5C882405240F054B98472000054BEA
:10866000984710BD4D650000020C0040000C004012
:108670008D6500001185000030B5D378002B35D111
:108680001378802B29D01B0680246402234354785E
:108690000225AC4306D19478002C20D18024A4027A
:1086A000234341605478013C012C1CD90D042D0C4E
:1086B000A024E4052C431C4384620D0CD024240622
:1086C0002C431C438462D478002C22D15B031CD53C
:1086D0009378012B1ED0416117E00023D7E7C02417
:1086E000E4022343DDE70D4C2340DFE741600C0447
:1086F000240CA023DB05234383620C0CD0231B0630
:1087000023438362D378002B03D15378013B012BA1
:1087100002D930BD8161F8E78160FAE7FFFFFBFF16
:1087200010B50A00C1090023002904D14309DB0167
:1087300005498C4663441F242040012181401800D4
:10874000024B984710BDC0460044004179860000A6
:108750007047FFFF10B5054B9847054B9847054BF1
:108760009847054B9847054B984710BD0982000074
:10877000BD65000051870000696700005187000057
:10878000931C9B001950022A09D0032A0CD0012304
:1087900093401A00037E1343037600207047037E44
:1087A000102213430376F8E7037E20221343037657
:1087B000F3E7FFFF70B58000164BC45823689D7B1C
:1087C000227E637E13401D40EB0706D4AB070BD41B
:1087D000EB0610D4AB0615D470BD2000A3689847F3
:1087E000012322689373F1E72000E368984702238E
:1087F00022689373ECE720002369984710232268CE
:108800009373E7E7200063699847236820229A73EF
:10881000E2E7C046981D002010B50020014B9847A4
:1088200010BDC046B587000010B50120014B984728
:1088300010BDC046B587000010B50220014B984717
:1088400010BDC046B587000030B585B001AA0B4BFE
:1088500032CB32C2019B98420DD0029B984208D085
:108860000023039A824202D0180005B030BD0233C3
:1088700002E0012300E00023DBB2F5E76C600100B9
:10888000F0B587B004000D0016000800854B98472E
:10889000070005AB1B221A7001325A709A7003ABA5
:1088A000802212011A80802252015A808022920175
:1088B0009A800023A360E36023616361237663767B
:1088C0008200794BD4502560B378082B06D02371F1
:1088D0002B880520DB0705D507B0F0BD1720FA0768
:1088E000FAD5F4E7EB7B1730DB06F5D42B889B0732
:1088F000F2D4337C002B79D1337F002B00D081E080
:108900006A49086A7A0003ABD35A03430B62B3780F
:10891000082B00D186E001A933780B7005ABDF5D31
:108920003800634B98473800624B98473189B388C9
:108930000B43B178B279114319437378002B02D0FD
:1089400080231B0119432268D37B5BB2002BFBDB26
:108950002980717B4B1E99418900B37B002B01D08C
:10896000012319432268D37B5BB2002BFBDBFF237F
:108970002B71002905D02268D37B5BB2002BFBDB77
:108980006971B17AF37A002B01D010231943337B3C
:10899000002B01D0202319432268D37B5BB2002B2C
:1089A000FBDBA9712268D37B5BB2002BFBDB237955
:1089B000042B3FD0082B5ED01720002B00D08BE774
:1089C000D37B5BB2002BFBDB338D2B822268D37B06
:1089D0005BB2002BFBDB738D2B832268D37B5BB2F6
:1089E000002BFBDBB38D6B83002075E702A901230D
:1089F0008B700022CA70327E0A704B70307D2E4B15
:108A0000984779E702A901238B700022CA702432AB
:108A1000B21812780A704B701F33F3181878264B6F
:108A200098476DE7086A7A1C520003ABD35A034398
:108A30000B6270E7D37B5BB2002BFBDB2823F35C7C
:108A40002B742268D37B5BB2002BFBDB2923F35C06
:108A50002B752268D37B5BB2002BFBDB2A23F35CF4
:108A60002B762268D37B5BB2002BFBDB2B23F35CE2
:108A70006B76002030E7D37B5BB2002BFBDBB36A65
:108A80002B612268D37B5BB2002BFBDBF36AAB610B
:108A90002268D37B5BB2002BFBDB336BEB610020E6
:108AA0001AE7C04649880000981D002000040040D5
:108AB000298600009D850000218700000268D37B85
:108AC0005BB2002BFBDB0379042B05D0082B09D00C
:108AD0000020002B03D07047107CC0B2FBE7108A47
:108AE00080B2F8E71069F6E710B50468E37B5BB283
:108AF000002BFBDB0379042B05D0082B14D01720A7
:108B0000002B08D010BD17200129FBD8D2B2611864
:108B10000A760020F6E717200129F3D892B20C312B
:108B200049000A530020EDE717200129EAD8063151
:108B300089000A510020E5E7FEE7FFFFF8B52A4A61
:108B40002A4B9A4211D01A00294B9A420DD2294A37
:108B500003339B1A9B0801339B00002223482249C0
:108B60008C58845004329A42FAD1234A234B9A42B9
:108B70000AD2D34321495B1803218B4304339B184A
:108B8000002102C29342FCD11D4AFF211D4B8B43A1
:108B90009360FD3990235B001B4AD1501B4AD37868
:108BA0000325AB4302242343D370D3780C27BB4364
:108BB00008263343D370164B987B302290432022F3
:108BC00010439873997BB943314399739A7BAA43B5
:108BD00022439A730F4A536880210B4353600E4B14
:108BE00098470E4B9847FEE760690100000000209F
:108BF0000401002004000020080100201C2900209E
:108C000000ED00E000000000007000410050004155
:108C10000048004100400041D14C010069D10000F2
:108C2000F0B5C64600B50C00904600280FD1002ACA
:108C300011DD8F18094E0A4D306821002B689847C6
:108C40000134BC42F8D1404604BC9046F0BD01233B
:108C50005B429846F7E78046F5E7C046AC1D00202A
:108C6000A41D0020F0B5C64600B50E001500013861
:108C7000022810D8002A11D000240C4B98460C4F23
:108C800043461868315D3B689847002808DB01348B
:108C9000A542F5D106E00124644203E0140001E09E
:108CA00001246442200004BC9046F0BDAC1D0020AD
:108CB000A81D00200300064A1268002A04D0044AB6
:108CC0001068C318136070470249014A1160F6E743
:108CD0007801002020370020012040427047802387
:108CE0009B014B60002070470120704700207047B7
:108CF00000BEFEE7704701204042704770B582B069
:108D000005000E0000226B46DA80064C6B46991D6A
:108D10002800A0470028F9D16B4606331B88337022
:108D200002B070BD477C000070B505008CB2034EE8
:108D300021002800B0470028FAD170BD217C000036
:108D400010B582B06B46DC1D012221000F48104B8C
:108D5000984772B6BFF35F8F00220E4B1A700E4B0E
:108D60001B7821780D4AD1549B2B0AD001330A4A33
:108D700013700122074B1A70BFF35F8F62B602B007
:108D800010BD0022044B1A70F3E7C0467C0100209E
:108D9000B17C0000080000204C020020B00100203F
:108DA000F0B591B08023DB05009300230193FF22EF
:108DB00069460A8100228B72CB7201242421684605
:108DC00044540131445401314354013143540A9312
:108DD000053143540131435405930382C37602762F
:108DE0000277427613238376427780235B030393D3
:108DF0002F4B0C932F4B0D9301235B420E930F933C
:108E000096231B0208932C4D2C4B1D602C4A2D4B96
:108E10001A602D4A2D4B1A606A462D4928002D4BA9
:108E200098472D4F3B68986800212C4EB0473B680F
:108E300058680021B0472E683000294B98471F23FF
:108E400018408440274B1C602A68D369002BFCD152
:108E50003368022213433360174B1B68DA69002A18
:108E6000FCD15968802252020A435A600121124AF9
:108E7000D171DA69002AFCD1DA69002AFCD159687B
:108E8000802292020A435A6001210B4A9171DA69E9
:108E9000002AFCD114490020144B984704220C4BA3
:108EA0009A75FD32FF320F4B1A6011B0F0BDC0460B
:108EB00003000400030005007C010020AC1D00201D
:108EC000298D0000A81D0020FD8C0000A41D00209D
:108ED00000080042E5780000A0000020F9530100DE
:108EE0009D74000000E100E0418D0000617400000D
:108EF000F0B5C64600B584B014001F00294BCB184E
:108F000040031D18002F1AD0274B5A1E95421CD81B
:108F10007A1993421FD3C91980239B01994220D803
:108F2000224B98463E1C102F00D91026B6B23200B4
:108F300029006846C047002E28D000231FE01C4BA4
:108F40001C4AD9211C481D4CA0471D4B194ADA2147
:108F500019481A4CA0471B4B164ADB211648174CE0
:108F6000A047194B134ADC211348144CA047FF219A
:108F7000914212D10133DBB29AB2964206D96A46C7
:108F8000D25C002CF3D021780134F1E7BF1BBFB2D3
:108F9000AD19002FC6D1012000E0002004B004BCB0
:108FA0009046F0BD0021000000610000374D010037
:108FB00078600100FC61010088600100754C0100CF
:108FC000C8600100E46001001861010010B50B4A9F
:108FD000FF231A4206D10A4B0A498C466344934246
:108FE00006D110BD084B094A59210948094CA04730
:108FF000094B064A5D210648064CA04700210000A7
:109000000061000000C0FFFF48610100B86101007D
:1090100088600100754C01007861010070B5150091
:109020004403134808182418124A501E84420DD8CD
:10903000E018824210D3C91880229201914211D8BF
:109040001A00210028000C4B984770BD0B4B0C4AAE
:1090500072210C480C4CA0470C4B094A732109485B
:10906000094CA0470A4B064A74210648064CA04703
:109070000021000000610000374D0100C8600100C0
:10908000C461010088600100754C0100E4600100CA
:1090900018610100F0B5DE4657464E464546E0B53C
:1090A00093B001929A46464C0C1940032518002BA8
:1090B00047D0444B5A1E954249D8524652199342C2
:1090C0004BD3D346514480239B0199424BD83E4B0E
:1090D0001B68002B00D098473F272F40EC1B4026F1
:1090E000F61B5E4500DD5646B3B29B464022FF218B
:1090F00002A8364B98473B0002AA9446634400936B
:109100003604370C3A0001991800314B9847314B1F
:109110009847314E402202A92000B0470528F9D0D7
:109120002E4B984753465A469E1AB6B2EC19019BED
:109130009946B944002E3BD0244B9B46244B98467D
:1091400031E0274B274A8A212748284CA047284B43
:10915000244A8B212448254CA047264B214A8C21A8
:109160002148224CA047244B1E4A8D211E481F4CEB
:10917000A0479FB24022FF2102A8D8473A004946A3
:109180000098C047134B9847134D402202A9200076
:10919000A8470528F9D0114B9847F61BB6B2E41939
:1091A000B944002E04D0331C402EE2D94023E0E71E
:1091B00013B03CBC90469946A246AB46F0BDC046B3
:1091C000002100000061000050020020494D010014
:1091D000374D01004D650000896900008D65000074
:1091E00078600100D461010088600100754C0100C5
:1091F000C8600100E46001001861010070B544031B
:109200000C482418FF239C430B4B013B8022920106
:10921000A6189C4207D8094D2000A8470134FF3406
:10922000B442F9D170BD064B064AC2210648074C2C
:10923000A047C0460021000000610000316A000024
:10924000C8600100E461010088600100754C010004
:1092500010B513000022014CA04710BDF18E000094
:1092600010B5014CA04710BDF18E000010B5054BA4
:109270001B68002B04D0984701235840C0B210BD92
:109280000020FCE7CC030020012909D0002902D0EE
:1092900002290DD070470A4B1A8880181880F9E708
:1092A000074A13880F33C0180F2398431080F1E743
:1092B000034A13883F33C0183F2398431080E9E7DF
:1092C000D203002030B5002919D0FF2413E0230079
:1092D000150A6B401D096B4012025A401D036A407B
:1092E0005B015A4092B203005D1EAB41C0180139C8
:1092F00089B2002903D00028E9D00378E8E71000FC
:1093000030BDFFFFF0B5DE46574680B589B001900D
:1093100002919346109A002A0DD092469A445B44DB
:109320009DB25E46029C0120AB453ED0224F002CF0
:1093300008D1002039E000229246F0E704AB5C89B6
:10934000002C31D0102304AA21000198B84704ABA7
:109350009A88AA42F2D2DB88D3189BB2B342EDD9E5
:10936000AB4201D21E00E9E7A91A89B2B24215D96F
:1093700004AB5B8903930B00ED1AADB25246002A91
:1093800008D010340919D21A9246C91A89B2019824
:10939000094CA047AE420DD0039CC8E7AB1B9BB263
:1093A0005E46029A0392E7E7002009B00CBC9246A1
:1093B0009B46F0BD0120F8E71D900000F0B5DE46A9
:1093C000474680B587B0049005919579D3791B0203
:1093D0001D43177953791B021F432C0A64B2002CDA
:1093E0002FDB1C4B03931C4B984611E0002D2AD019
:1093F0001A4B00932B003A0005990498184EB04779
:10940000002820D0290015E0013C64B2631C1AD06A
:10941000002CEBD0013DFF3DADB2104B00938023FB
:109420005B003A00059904980D4EB0470028EBD038
:10943000802149007F18BFB2039A0848C0470390B3
:10944000E2E7044B0393039807B00CBC90469B469D
:10945000F0BDC046FFFF0000C5920000840200205E
:109460000593000070B5164B1C78002C26D0154BC8
:109470001B88834216D00123124EDAB294421BD9C4
:109480001D00591C9A00B25A824201D00B00F4E729
:109490009B000C48C018AD000A4B5D196B88002B6F
:1094A00003D070BD07480025F5E7074B074A8C211C
:1094B000FF310748074CA0470020F2E70020F0E703
:1094C000C8030020A003002078620100606301004F
:1094D00094620100754C010010B5054B98470028B7
:1094E00004D08378C0780002184310BD0020FCE748
:1094F0006594000010B504000E4B984700280BD16E
:109500000D4B1B78092B0ED8591C0B4A11700B48B8
:109510009B001C52C01810BD094B0A4ACC214900BF
:1095200009480A4CA0470A4B064A9A21FF310648CF
:10953000064CA04765940000C8030020A00300204B
:10954000206201007063010094620100754C01000B
:109550003C62010010B50B4B984700280BD00A4B1A
:1095600019780139C9B219708900084B59180422B9
:10957000074B984710BD074B074AD32149000748BE
:10958000074CA04765940000C8030020A0030020FA
:10959000374D01005C6201008063010094620100AC
:1095A000754C010010B5054B9847002800D010BD40
:1095B000034B1878034B9847F9E7C0466D920000BB
:1095C00009000020FD91000010B5084C2078084BE0
:1095D00098472078802292010021064B9847002866
:1095E00003D080225200044B1A8010BDD00300200B
:1095F000FD91000051920000D2030020F0B583B02D
:1096000001900D001600074F387813000A000199E9
:10961000054CA047387833002A000199034CA04735
:1096200003B0F0BDD00300209590000061920000CF
:1096300010B586B001AC4123A3701333E370013B36
:109640002371053B63712833A371443BE37103909D
:10965000C0430490084B1B882382084A10216B46A4
:10966000981D074B98472080122221000020054BAF
:10967000984706B010BDC046CA030020FFFF000097
:10968000C5920000FD950000F8B504000D00214AC8
:109690001388CB189BB21380FF2B2ED91E4B1A8830
:1096A000801880256D00AA1A1C491D4B98471D4B38
:1096B00018882A0021001C4B9847051E27D000213E
:1096C00080204000194B9847134B188800221A80BD
:1096D000104B1E88013EFF3EB6B21E80002E16D0F3
:1096E00080214900091A89B20C4B59183200200018
:1096F0000B4B9847084B1E8009E0074E3788C0196E
:109700000A000649064B9847ED19358001252800C7
:10971000F8BDC046800200205402002084020020D0
:10972000374D0100D2030020FD9500008992000012
:10973000F0B5DE4657464E464546E0B5D5B07B48C7
:109740007B4B984700237B4A13807B4A13807B4ADC
:1097500013807B4A13807B4B1B781F0003931223DB
:109760000FAA00213800784CA047119B0993754C33
:109770002500260008E03370724B1B78BB420BD0EB
:10978000724B984700280DD123780133DBB2012BAF
:10979000F1D900232B70EFE76D4B6E4A6E496F488D
:1097A0006F4CA0476F4B1B78002B6AD000230693A9
:1097B0000133FF3399466A46D3826B4B10330893CB
:1097C000069B07939F00694B9C4667447B881D005E
:1097D000049310230BAA2900039880465A4CA047F3
:1097E0000BAE0023B3803489F4807381B3811034CD
:1097F000A4B23200290040465D4B984730805D4A54
:109800000E210BA85C4B9847F081574D4A46FF212B
:1098100028005A4B98472B0007CE07C332681A60BE
:10982000574B1B88454A12889B187B804C4504D9AE
:10983000002610234C4A904668E00BAB1B89089A1F
:1098400000920022049903984E4EB047002863D03E
:10985000079B9D00454B5D19494B1B88374A128871
:109860009B186B80210014A8474B9847002853D0C1
:10987000069B0133DBB21A0006933A4B1B789342E6
:109880009ED82F4B1A88002A06D03D4B188814A961
:109890003E4B9847041E40D0294B188800213C4B72
:1098A0009847374B1A883B4B1A80099801383A4B36
:1098B0009847041E31D002210020354B9847374B82
:1098C0006A46127B1A70364D2800194B98472800BB
:1098D000344B984721E0ADB2EF1ABAB293464344F5
:1098E00000931300320004990398264FB8470028CC
:1098F00012D0290014A8244B984700280CD0641BD0
:10990000A4B25E44B6B20023002CB1D0251C4C4555
:10991000E1D96A46D58ADEE70024200055B03CBC78
:1099200090469946A246AB46F0BDC0466C02002068
:10993000B1BF0000980300209A03002054020020C9
:1099400080020020D00300201D900000C995000077
:10995000186201009C630100D503000094620100BD
:10996000754C0100C803002084020020A0030020E1
:10997000BD930000FFFF0000C5920000494D0100AB
:10998000D20300200593000089960000FD95000099
:1099900089920000CA0300203196000009000020CF
:1099A000840300201DC0000010B5074B9847002815
:1099B00000D010BD054B9847054B064A2C21FF31BE
:1099C0000548064CA047C0466D9200003197000044
:1099D000186201004863010094620100754C0100A7
:1099E00010B5124B1A8880239B019B1A9BB28342AD
:1099F00003D30F4A93420AD910BD0E4B9847002853
:109A0000FAD10D4B0D4A0E490E480F4CA0470F4896
:109A10000F4B98470028EFD10C4B0E4A1A610E4AA3
:109A20005A609A6000221A73E6E7C046D20300200B
:109A30000F0800003197000018620100AC630100BC
:109A40004E04000094620100754C01006C0200207D
:109A5000F1BF0000A999000010270000F0B5DE4614
:109A600057464E464546E0B58BB0774B98470523A1
:109A7000002807D018000BB03CBC90469946A2467F
:109A8000AB46F0BD714B1888002846D1704B1B883F
:109A9000002B00D1D0E06E4B18886E4B9847834660
:109AA000002800D1CAE08278C3781B021343190052
:109AB0000393694B1878102306AA684CA047634BA0
:109AC0001A88002A2ED0664B1B88059306AB1B898B
:109AD00006A90A81191C934200D9111C8BB206AA4F
:109AE000002191801089D080518191811C00103417
:109AF000A4B25C4961CA61C112680A608022520046
:109B0000944239D90026102380225200914669469A
:109B10004A82514A92461A0088E0103080B2524B75
:109B20009847B8E706AB1889103080B24E4B98477B
:109B3000474B1888474B98478346002815D08278B2
:109B4000C3781B0213431900039306AC424B1878E9
:109B500010232200414DA847414B1B8805932389C0
:109B60003A4A1288002ABAD0B2E7404B404A9121C3
:109B7000C9004048404CA047374A1078394A103253
:109B80000092002203993D4CA0470123002800D1F8
:109B900070E7344906AB0A00180070C870C200684C
:109BA0001060DA88103292B22D4B1888344B9847E7
:109BB0000023002800D15DE706ABD888103080B2C2
:109BC0000221304B98470023214A13801F4A1380FB
:109BD0005B46059999700B0A5A46D370002349E7F2
:109BE000ADB2AF1ABBB21900534618781D4B9B1883
:109BF000009302910B0032000399204FB8470028D0
:109C00001ED0174B18882A0016491D4B984700286C
:109C100018D0022128001B4B9847641BA4B202995C
:109C20008C466644B6B20022002CCCD0251C4C4594
:109C3000D6D96B465D8AD3E700231BE7002319E7DB
:109C4000012317E7002315E76D9200009A03002017
:109C50009803002065940000D00300201D900000B0
:109C6000D203002084020020E19900000862010074
:109C7000C463010094620100754C0100059300006B
:109C8000FD9500008992000010B5014B984710BD6A
:109C90005D9A0000F0B5DE4657464E464546E0B5B3
:109CA00083B004008A46464D80225200FF212800DE
:109CB000444B9847444EA379E17909021943320095
:109CC0005046424FB8472070000A607032000E21A3
:109CD0002000B847A073000AE0731022210028007A
:109CE0003B4B9847A379E27912021A4315001035CD
:109CF000ADB25346002B12D080235B009D4209D9A0
:109D00000026102780235B009B466A46D3802C4B9D
:109D1000994645E051462A4810302D4B9847A37983
:109D2000E27912021A43103280235B009A4200DD6E
:109D30001A0092B2274B18882149274B9847804632
:109D4000002833D0A379E07900021843103080B2A4
:109D50000221224B9847404603B03CBC90469946AE
:109D6000A246AB46F0BDA4B24B46D819E21B5346FF
:109D70009919174B9847174B188822004946164BDC
:109D8000984780460028E6D002212000134B9847D0
:109D90002D1BADB2E41B3619B6B20027002DDAD068
:109DA0002C1C5D45DFD96B46DC88DCE7A379E079C4
:109DB00000021843103080B20221084B9847CAE7CE
:109DC00084020020494D0100FFFF0000C592000001
:109DD000374D0100D2030020FD950000899200005C
:109DE000F0B5CE46474680B591B00022B34B1A700D
:109DF000002401235B429946FF27B14E12230BAA90
:109E000000212000B0470D9D0E9B01936B40013354
:109E10001DD00134E4B2022CF0D1FF2F57D0A94B52
:109E20001F704346012B00D17BE04346022B6AD1D1
:109E300080225200A44B1A80122306AA0021380067
:109E40009F4CA047A04DA14B98462E000FE102ABBE
:109E500026229B181B78412BDBD102AB01329B18C9
:109E60001B78542BD5D102AB01329B181B78532B96
:109E7000CFD102AB01329B181B784E2BC9D102AB5C
:109E800001329B181B78762BC3D102AB01329B1891
:109E90001B78312B06D102AB9B8C002BB9D101234F
:109EA00098460FE0322BB4D1894A1021262002AB0C
:109EB0009C466044874B984702AB9B8C8342A8D159
:109EC000022398464D45A4D2A9462700A1E70022C7
:109ED0007C4B1A70804C814E814D06E0794A137894
:109EE0000133DBB21370012B15D8A0470028F5D041
:109EF00001235B42338002204042A8470028EDD076
:109F000000226E4B1A700122764B1A7011B00CBCF5
:109F100090469946F0BD744B744A75497548764C25
:109F2000A0471022684B1A801021664E644D694F7D
:109F300072E006AB1B88002B07D006ABD888103028
:109F400080B20121614B984761E006AB5C8820003C
:109F50006A4B9847002810D05B4B1A7882705B7868
:109F6000C37006AB1B89002B0BD006ABD888103012
:109F700080B20121554B984749E02000604B98473B
:109F8000EAE720005F4B9847EFE74F4B19884D4BAE
:109F9000187802AA5C4B984702AB1B88834207D013
:109FA00002ABD888103080B22100484B98475EE061
:109FB00002AB5F883800514B9847002810D0424BC5
:109FC0001A7882705B78C37002AB1B89002B0BD0B0
:109FD00002ABD888103080B221003C4B984746E055
:109FE0003800474B9847EAE73800464B9847EFE779
:109FF00006ABDC89364A0C21122002AB9C46604439
:10A00000B847844295D001211020304B98472E4B01
:10A0100019883E4B994212D806AC307810232200A2
:10A02000A8472378FF2BE3D106AB1F2102AA944651
:10A0300061445A78FF2ADBD101338B42F9D1344B8A
:10A040009847002800D05EE7274B324A324929481A
:10A05000294CA04702ABDF891D4A0E2118001D4B79
:10A060009847874291D021001020184B98472B88A1
:10A07000264A934200D946E706AA128A14498A4220
:10A0800002D000249A4203D802210020C0470224B3
:10A0900031880C4B1878102302AA094FB84702AB3D
:10A0A0001B78FF2BD6D102AB0F219C4661445A7816
:10A0B000FF2ACFD101338B42F9D124E7C803002016
:10A0C0001D900000D0030020D203002089920000E0
:10A0D000FFFF0000C5920000C9950000CA030020E0
:10A0E000319600009C03002018620100D06301003B
:10A0F0002B05000094620100754C0100659400007E
:10A10000F594000055950000BD930000FF1F00006E
:10A1100031970000906301003603000010B5084B32
:10A120001B78002B08D0074B074A1A61074A5A6070
:10A130009A6000221A7310BD054B9847F3E7C0469A
:10A140009C03002084030020A5950000581B0000FC
:10A15000E19D0000F0B5CE46474680B587B00400CB
:10A16000019115001F0000280CD0002B0AD0354BA0
:10A170009847052300280BD0180007B00CBC904668
:10A180009946F0BD304B314A31493248324CA047F4
:10A190002800103080B2314B98472000304B984750
:10A1A000060003230028E7D08378C47824021C43E8
:10A1B000A0462C4B1878102302AA21002A4CA04755
:10A1C00002AB1989019B5A1904238A42D4D802ABE5
:10A1D0006A4692889A80DD8042465A818D422CD010
:10A1E00002AB9B89013302AA9381204B1C88390062
:10A1F00002A81F4B984701230028BDD0B470240A41
:10A20000F47002AB9A890023642AB5D902AB5A884C
:10A21000184B1A800022184B1A801848184B984780
:10A2200000230028A8D1154B164A1A61164A5A6015
:10A230009A6000221A7300239EE7002302AA9381EA
:10A24000D3E7C0466D92000028630100F46301006B
:10A250009605000094620100754C0100E199000030
:10A2600065940000D00300201D900000D203002060
:10A27000959C0000980300209A03002058020020BB
:10A28000F1BF0000899C0000B80B0000F0B583B05E
:10A290000C0015001E00002809D0002B07D0104B21
:10A2A00098470323002808D1180003B0F0BD0D4BD8
:10A2B0000D4A0E490E480F4CA04762190E49013352
:10A2C0008A42F1D80D4B1F7800962B002200010026
:10A2D00038000B4CA047434243419B00E4E7C04693
:10A2E000D99400002863010004640100EE05000019
:10A2F00094620100754C0100FFFF0000D0030020B4
:10A300000593000010B584B0002805D00A4B98478B
:10A31000011E07D104B010BD084B094A09490A487B
:10A320000A4CA0470A4B187810236A46094CA047EC
:10A330006B461889EEE7C046D99400001C63010003
:10A34000146401000B06000094620100754C0100CA
:10A35000D00300201D900000F0B585B004000E0071
:10A360001500431E9BB22E4A93421ED880231B0128
:10A3700099421AD82B4B984700281DD020002A4B11
:10A380009847864207D0294B1C80294B1E80294BB9
:10A390009847031E15D1002D40D02B00320000211C
:10A3A0002000254CA04703000BE0244B244AAA219F
:10A3B000C9002448244CA047244B98470523002873
:10A3C00002D0180005B0F0BD3000103080B2204B34
:10A3D0009847204B1B78092B19D81F4B1F886B46B9
:10A3E0005C8000236A469380D680168153819381D6
:10A3F00029006846194B984701230028E1D0200026
:10A40000174B984787703F0AC7700223D9E7154B4F
:10A410000B4AAF21C9000B480B4CA0470023D0E7E3
:10A42000FEEF0000D994000005A30000980300206F
:10A430009A0300205D9A00008DA20000DC620100FA
:10A44000E063010094620100754C01006D92000010
:10A45000E1990000C8030020D2030020959C000071
:10A46000F59400003C62010010B5034B9847431E71
:10A470009841C0B210BDC046D9940000F0B5D64690
:10A48000474680B587B00F00244B984212D0430452
:10A490001CD4C308CF1807231840063B83403A78E2
:10A4A00013433B7001230193019807B00CBC904605
:10A4B0009A46F0BD0222FF213800194B98473B789D
:10A4C000012293433B7001230193EDE704A9154B4F
:10A4D000984701900028E7D004AB9B889846002B52
:10A4E000E2D0002402AB9D1D0F4B9A460726610067
:10A4F000049B9C46614402222800D0472988CA0850
:10A50000BA18314001238B4011780B43137001348A
:10A51000E4B2A3B24345EAD3C6E7C0460240000016
:10A52000494D01000DAC0000374D0100F0B589B078
:10A5300007A900230B802B4B984701900026002889
:10A5400048D141E0284B294AAB2149002848294CF1
:10A55000A047294B254A6821FF312548254CA047B3
:10A5600001370135ADB2082F31D007ABF35CFB40AA
:10A57000DB07F5D503A92800204B9847002821D0F8
:10A5800003AB5B88002BDDD0049B002BDAD0059B4E
:10A59000002B00D098472800194B9847040003ABC4
:10A5A000049A59882800174B9847022816D000288B
:10A5B000CFD103AB5A88049923002800124CA0473E
:10A5C0000028CDD100230193019809B0F0BD0136D8
:10A5D000022EF9D0F500ADB20027C6E700230193A3
:10A5E000F2E7C0467DA400002C6401002465010050
:10A5F00068640100754C0100B464010061A90000A9
:10A6000005A3000059A30000C1A9000010B5054929
:10A61000054B9847041E01D1200010BD0020034BBC
:10A620009847F9E7D80300207DA4000099A800000E
:10A63000F0B5DE4657464E464546E0B589B0514B2B
:10A6400018780130C0B2504B1B78013307221340F9
:10A6500098460123424693409A4602239C46012491
:10A660004A4B9B464346013302930725674635E034
:10A670004F46012201998A4097434449039C0F5554
:10A68000404A1070404A1370C000C4182000404B6C
:10A69000984700283AD104A920003E4B984700284B
:10A6A0004ED0069B002B00D09847059A04AB5988E2
:10A6B0002000394B9847FD23184241D0374B384A88
:10A6C000EB213848384CA0474F4643460193D0E72A
:10A6D0000130C0B2013FFFB2002FD5D0204003901F
:10A6E0005B461B5C99461E0053463342ECD1029BED
:10A6F0002A002B4001933100D9400C42B8D10133DC
:10A70000DBB2013AD2B2002AF3D1E1E704A920007A
:10A71000204B9847002813D004AB5B88002B1ED039
:10A72000059B002B1BD0069B002B00D09847059B58
:10A7300004AA5288002120001C4CA047002815D1F3
:10A74000124B1B78002B18D1104B5B78002B14D1C7
:10A7500009B03CBC90469946A246AB46F0BD144BAE
:10A76000144A9A2149000F480F4CA047124B114A36
:10A77000A12149000B480C4CA04700200F4B9847E3
:10A78000E6E7C046D4030020DA030020D803002007
:10A7900069A4000061A9000059A30000B46401008D
:10A7A000FC64010068640100754C010055A10000C3
:10A7B0002C640100146501003465010099A80000B3
:10A7C000F0B585B003A900230B80114B9847019089
:10A7D0000027002816D1019805B0F0BD01350134DD
:10A7E000A4B2082D0BD003ABDB5DEB401E42F5D0CD
:10A7F0002000084B98470028F0D10190EBE7013783
:10A80000022FE8D0FC00A4B200250126EBE7C046E9
:10A810007DA4000069A4000010B5024B9847024BCC
:10A82000984710BDCD8F00001DA1000070B584B009
:10A830000124124E124D09E0124B134A50311348B5
:10A84000134CA0470134A4B20A2C14D0694620004E
:10A85000B0470028F6D06B4659880029ECD000227A
:10A860002000A847FD231842ECD00A4B064A5B2182
:10A870000648074CA04704B070BDC04661A900005F
:10A8800059A3000050650100A8650100646501003E
:10A89000754C0100B4640100034A01238340117820
:10A8A0000B4313707047C046DB03002070B50D4B9F
:10A8B0001D78002D12D02800EB0710D400230124AE
:10A8C0000133DBB219000200DA401442F8D0012350
:10A8D0008B405D40034B1D70034B984770BD0021BA
:10A8E000F5E7C046DB03002031A6000010B5914219
:10A8F00000D810BD891A80180A000021014B984722
:10A90000F7E7C046494D010070B5104C08221049C8
:10A910002000104B984721000E3102200E4DA84711
:10A9200021000C310120A847210010310020A84748
:10A93000210008310520A847210011310620A84731
:10A940002023064AD35CA37470BDC046B01D00200E
:10A9500094000020374D010049DB00000C0000206E
:10A96000F0B587B0019102AA114B110070CB70C1F4
:10A970001B680B601388834212D00E4B02AA0E494B
:10A980008C4611001C00E0CCE0C124680C601188EA
:10A99000814205D010336345F3D1002007B0F0BDEC
:10A9A000102202A90198054B98470120F6E7C046FE
:10A9B0000061000010610000A0610000374D01003F
:10A9C000F0B5CE46474680B585B007000E001500AD
:10A9D0001C009A4217D06946784B9847002800D14E
:10A9E000E6E06B461B7BDB0706D5092F00D9D9E0D3
:10A9F000BF00734BDB599F46724B734ABC21FF313A
:10AA00007248734CA047072863D02BD9082800D17F
:10AA100088E0092800D0C5E0A54200D1C2E02200AC
:10AA2000290030006B4B9847A54200D8BAE0331993
:10AA3000291B013989B20131591800221A700133DA
:10AA40008B42FAD133002A0000210920624CA04732
:10AA5000002800D1A6E0614B614A6E21FF315B48BE
:10AA60005B4CA047012800D09CE03378FF2B7BD1C2
:10AA7000731C310018311A78FF2A75D101338B42CB
:10AA8000F9D18FE0220029003000524B9847A542AF
:10AA900000D887E03719534B99460023984608227F
:10AAA000FF213800C8474346BB6010371034A4B2BA
:10AAB000A542F4D833002A0000210620464CA047C6
:10AAC00000286FD0454B484A842149003F48404CFC
:10AAD000A047A54266D02200290030003D4B984790
:10AAE000A5425FD937193F4B994600239846082263
:10AAF000FF213800C8474346FB60BB60143714345D
:10AB0000A4B2A542F3D833002A0000210720324C1A
:10AB1000A047002846D0314B344A952149002B48A4
:10AB20002B4CA047A5423DD0220029003000294BE4
:10AB30009847A54236D93319FF21197000225A705F
:10AB400002330234A4B2A542F7D833002A00002110
:10AB50000820214CA047002824D0204B244AA621BD
:10AB600049001A481A4CA047082231002148224BBC
:10AB7000984731000E310220204CA04731000C31A3
:10AB80000120A047310010310020A0471C4D2900B2
:10AB90000520A047290009310620A047B17C2023C9
:10ABA000184AD154012005B00CBC90469946F0BD1E
:10ABB000092FF7D8BF00144BDB599F4661A900004D
:10ABC000B865010070660100606601009C660100C6
:10ABD000754C0100EDA8000055A10000346501008E
:10ABE0004C660100494D0100086601002066010025
:10ABF0003466010094000020374D010095D9000013
:10AC0000B81D00200C000020E065010070B582B086
:10AC10000C006B46084A694660CA60C1DA880023A6
:10AC2000824202D0180002B070BD0822694620009E
:10AC3000024B98470123F5E790610000374D010072
:10AC4000024B18700122024B1A7070475C1E0020E4
:10AC5000DC03002010B50278084B1A7042785A7055
:10AC60000A78074C22704A7862701888054B98471A
:10AC70002088054B9847012010BDC0464C1E00207F
:10AC8000641E002009B60000E9B5000010B50028D8
:10AC900003D0FF2805D0002002E0044B9847012094
:10ACA00010BD034B98470120FAE7C04635B60000B7
:10ACB00061B6000010B5002809D10B781A2B07D80F
:10ACC000044A13701800044B9847012000E000204C
:10ACD00010BDC046661E00208DB6000030B583B0A2
:10ACE0006C46009001910F4B98470F4D2B0006CCFE
:10ACF00006C30E4B9847040001200D4B98470D4B9F
:10AD00001C7068680C4B98470C4B00221A707F210E
:10AD10005A547F315A547E21FF315A54012003B0D6
:10AD200030BDC04681B50000541E002031B5000082
:10AD3000D5B50000C81D0020C9B60000801E002047
:10AD4000F0B5DE4657464E464546E0B58BB003901B
:10AD50000E000491111C1400240A0592019314AAF8
:10AD6000157815AA13780293C3B298469806C30FB4
:10AD70009946C9B2E2B243465B0700D501210323DD
:10AD800044462340012B37D05C425C41E0B282460E
:10AD900003AC64897B4F3F88A74230D000208446B3
:10ADA000073083465C460834002900D0063C002A60
:10ADB00036D00234E4B22427BB4647465846074003
:10ADC000202F30D0032B32D06F4B64191C705046AB
:10ADD000587003AC4B465B0120782027B8431843DA
:10ADE0002070C443A30729D0002948D0002A2FD0BF
:10ADF000882465498C702EE003208246C8E76348AA
:10AE0000844208D040245046204382460120844694
:10AE100004308346C6E70020844607308346C1E7F6
:10AE20000834E4B2C7E7504638438246CAE70122F5
:10AE3000002399469C469A460724C5E7524980203C
:10AE40008870534C2078461C2670C87004212CE072
:10AE5000C8244D498C704E4C21784B1C23704A4CB1
:10AE6000E17003A98B7A2371C97A6171430717D402
:10AE70003078454988717078C871082115E0002A3A
:10AE800063D0414C8C21A170414B19784F1C1F702D
:10AE9000E17003A98B7A2371C97A6171430767D581
:10AEA0003949FF208871C87108216346002B09D1F8
:10AEB000481CC0B2344C334E337863540231C9B2AB
:10AEC00076782654002A31D02F48324C22784254CA
:10AED0008A1CD2B20131C9B264784454002D0AD020
:10AEE00001995519EDB2284E501C0C78B45401311B
:10AEF000C2B29542F8D1284A019B1360274B169A9B
:10AF00001A60274B6A46127A1A7007A8002303704A
:10AF1000244B83601C4B4360234B984701200BB0AC
:10AF20003CBC90469946A246AB46F0BD1F4A5068CD
:10AF30000E000836F6B2144B4A1CD2B204785C54A8
:10AF400001301100B242F7D1C8E70F4CCC21A170FB
:10AF50000F4B984619784B1C994643464F461F7035
:10AF6000E17003A98B7A2371C97A6171430797D481
:10AF70000020054B345CC1188C7101300828F9D1D0
:10AF80000E2192E7641E0020CC1D0020FFFF000070
:10AF9000C81D00204C1E0020E8030020E003002014
:10AFA000E403002041AC000055B40000541E002012
:10AFB000044B1B78032B04D8DA01D31A0021024A70
:10AFC000995470470A000020801E002070B5FF22AF
:10AFD000CE4B1A70CE4B1B78002B00D0BFE17F33D5
:10AFE000CB4AD35C002B0BD1FE33D35C002B30D18A
:10AFF0007E23FF33D35C00200322002B01D170BDE0
:10B000000122C24B1A700020032AF8D81000D10187
:10B01000891ABF4B5B185D7840242540BD49002448
:10B020000C70CC73013C0C829B7833218B43D9B2DA
:10B03000882900D1C4E00ED9D9B2C82946D0CC297C
:10B0400000D18AE08C2900D104E1B34B984700205D
:10B05000D5E70222D5E7082B00D131E18029F4D1D0
:10B06000AC4B197804242143802464422143197095
:10B070000121D973A64CD101881A21180D791D74AC
:10B0800049795974D1018A1A911D09195960015DD4
:10B090000B391973083212199A609C4B1B78D9012D
:10B0A000C91A9B4A521851780A0700D529E107228C
:10B0B0000A40012A00D131E1002A00D149E1032AE6
:10B0C00000D13EE1944B9847002098E7D101891ABE
:10B0D0008F4B5B189B79FF2B1CD08E490C788023FB
:10B0E0005B4223430B70002D21D0894CC301181AF9
:10B0F00023181D790D745B794B74D3019A1A1300D0
:10B1000008331B194B60035D133B0B73103212198C
:10B110008A60C2E7D101891A7D4B5B18DB79FF2B6E
:10B12000DBD17C490B78042423430B70D5E77949A4
:10B13000774CC301181A23181D7A0D745B7A4B746F
:10B14000D3019A1A13000A331B194B60035D153B98
:10B150000B73123212198A609FE76E490C788023B4
:10B160005B4223430B70002D14D0694CD301981A15
:10B1700023181D790D745B794B74D3019A1A13004F
:10B180000E331B194B60035D193B0B7316321219FA
:10B190008A6082E75F495E4CD301981A23189D7B31
:10B1A0000D74DB7B4B74D3019A1A130010331B19F7
:10B1B0004B60035D1B3B0B73183212198A606CE7FE
:10B1C000D101891A524B5B189B79FF2B1FD0514B31
:10B1D0001C7880214942214319700121D973002D27
:10B1E00022D119004A4CC301181A23181D7A0D7474
:10B1F0005B7A4B74D3019A1A13000A331B194B6004
:10B20000035D0F3B0B730C3212198A6045E7D101C5
:10B21000891A3F4B5B18DB79FF2BD8D13D490B785E
:10B22000042423430B70D2E73A49394CC301181A5E
:10B2300023181D790D745B794B74D3019A1A13008E
:10B2400008331B194B60035D0D3B0B730A32121957
:10B250008A6022E72F4B1C788021494221431970D4
:10B260000121D973002D15D01900294CD301981A4A
:10B2700023181D790D745B794B74D3019A1A13004E
:10B280000E331B194B60035D133B0B731032121905
:10B290008A6002E71F491E4CD301981A23185D7B70
:10B2A0000D749B7B4B74D3019A1A13000F331B1937
:10B2B0004B60035D153B0B73123212198A60ECE68A
:10B2C000D101891A124B5B189B79FF2B0CD01149C5
:10B2D0000F4CC301181A035D0A3B0B73D3019A1A72
:10B2E000083212198A60D8E6D101891A084B5B1816
:10B2F000DB79FF2BEBD107490B78042423430B7038
:10B30000E5E7054B9847002079E6C0460A00002093
:10B31000801E002094280020B1AF000012490A7856
:10B32000032082430A70114AD901CB1A985C0E4956
:10B33000D3181A18013A12788A731B5C4B730120D8
:10B340005DE609490A7803208243012002430A701E
:10B35000E9E705490A78032002430A70E3E700227F
:10B36000034B1A7052E6C04694280020801E00202D
:10B370000A000020000170470048704700F8FF07EE
:10B3800010B50B4B98470B4B1B68002B03D00A4A98
:10B390001278002A00D110BD084A126808490978BD
:10B3A0000848007898470022034B1A70F3E7C0461C
:10B3B000E9B60000E0030020DC030020E8030020E1
:10B3C0005C1E0020E4030020F8B504000F4B1B783E
:10B3D000022B16D00E4F0F4E1F2503210220B84717
:10B3E0000120B04728400828F7D1094F094E1F25F2
:10B3F00021000220B8470120B04728408442F7D1FD
:10B40000F8BD80225203044B5A61E3E76D0400202B
:10B41000FDC8000001C800000044004110B508202C
:10B42000084B98470F20084B9847084B1B78002B78
:10B4300000D110BD1620034B98470122044B1A700F
:10B44000F7E7C046C9B3000001C800006C04002043
:10B450006D04002070B505001020094B9847041EAC
:10B4600009D004300C222900064B984721000648D9
:10B47000064B984770BDAB6801209847FAE7C04675
:10B4800069BC0000374D0100741E002065BE00003D
:10B4900010B51E4B1B7A002B04D01D4B1B78013BB3
:10B4A000012B00D910BD002118481A4B9847041EE3
:10B4B000F8D083681B787F2B23D8174B02791A703A
:10B4C000C2689A601920154B98470F20144B984773
:10B4D000A268137802331370A36819780139C9B2CE
:10B4E0001800104B98470322094B1A700E4B80220C
:10B4F00052039A61C046C0465A6120000B4B9847E0
:10B50000D0E7C36801209847CCE7C046741E0020EE
:10B510006D0400209DBE0000681E0020C9B300001D
:10B5200001C800002DCB00000044004125BD0000F3
:10B53000F0B5C64600B506200D4B984700240025FF
:10B540000C4F0D4E032398460120B8470620B04704
:10B55000400943461840A0400543ADB20234102CC8
:10B56000F2D1064B9847280004BC9046F0BDC04677
:10B57000C9B300002165000001C800001DB400002F
:10B5800070B50E4B98470E4B984700220D4B1A7022
:10B5900001320D4B1A700D4E0D4D1F240821022053
:10B5A000B0470120A84720400828F7D12E210438B1
:10B5B000064CA047A0210C20A04770BDB5C60000D6
:10B5C000D1C700006C0400206D040020FDC80000FD
:10B5D00001C8000010B5024B1870024B984710BD0F
:10B5E0006C0400201DB4000030B583B06B469D1D77
:10B5F000D880C1B22220034CA04769782320A047FD
:10B6000003B030BDFDC8000070B582B06B469E1D12
:10B61000D880C4B221002020054DA847767831009B
:10B620002120A847A419E1B22D20A84702B070BD7F
:10B63000FDC8000010B5074B1B78022B09D008206D
:10B64000054B984780225203044B9A610222014B1A
:10B650001A7010BD6D040020C9B300000044004101
:10B6600010B5074B1B78022B00D010BD802252036F
:10B67000044B5A61044B98470122014B1A70F4E7BE
:10B680006D040020004400411DB4000010B504000A
:10B69000094B1B78022B0BD00820084B98471F231F
:10B6A000010099432143C9B20820054B984710BDBA
:10B6B000044B9847F0E7C0466D04002001C8000025
:10B6C000FDC8000061B6000070B505002424054ED9
:10B6D00029782000B04701350134E4B22C2CF7D191
:10B6E00070BDC046FDC80000F0B585B03F4B98471F
:10B6F0003F4B1B78022B0AD00F203E4B9847030785
:10B7000005D53B4B1B78012B03D0032B53D005B041
:10B71000F0BD394B1D78002D10D07F23364AD35C05
:10B72000002B0AD0FE23D35C002B42D07E23FF33B4
:10B73000D35C0325002BEAD100E0012507202D4B27
:10B740009847019002ABDE1D012130002B4B98473A
:10B7500031784BB2002B24DB0231C9B22848274B89
:10B7600098472C0002ABD879871CFFB2EB015D1B18
:10B77000214BEF547D2F14D80230012201232900E0
:10B780001D4D6D181E4EB15CA9540133DBB21A0079
:10B790009842F8DAE201121B174B9B18019C5E3CA1
:10B7A000DC55144D1F240120A84720401628FAD14B
:10B7B000ADE70225C2E702200E4B98474009C0B210
:10B7C000002804D003280DD005280DD001200D4CF1
:10B7D000A36898470023A3600B4B98470122044BB2
:10B7E0001A7094E70220F2E70320F0E791B400001A
:10B7F0006D04002001C80000801E0020FDC900006B
:10B80000EC030020681E00201DB4000010B5014BA1
:10B81000984710BD89C40000F0B5DE4657464E4635
:10B820004546E0B58BB003900D001400049314ABB3
:10B830001E7815AB1F7816AB1B789A46774B1B7892
:10B84000002B07D00222764B1A70764B98470022C5
:10B85000724B1A70072F17D8BB00734AD3589F46F4
:10B86000002398460827BBE0012398460027B7E04D
:10B87000012398460427B3E0012398460827AFE048
:10B88000012398461027ABE007239F4300D0B5E083
:10B89000B846A5E0654B9847B5E0654B1B78002B93
:10B8A0001AD0002C0DD0002200212000614B9847B7
:10B8B000102221006048614B984700225C4B1A70AF
:10B8C0001EE0574B1B78012B03D05D4B984702209D
:10B8D0009CE0564B9847F8E7002C11D00F225649B0
:10B8E0001800AC46535CA55C6B400343581E834173
:10B8F000D8B2013AF6D265464D4A10700028D2D12E
:10B90000002F29D101232B70049B002B03D02B780F
:10B91000402213432B702B7899460023AB73534678
:10B92000002B2AD1002F03D0EE734346012B1AD0EF
:10B9300001232B70039B049A944663441800330040
:10B940003A0029003F4CA047354B1B78012B3DD0D6
:10B950003B4B9847002059E0059B023B9B0001228E
:10B9600013432B70D0E7049B9919039884466144D4
:10B9700000962A00344CA047DAE74346012B0DD04D
:10B98000002FE1D0EE73039B5B4418003A0006A938
:10B990002E4B98470028D7D0032037E02B70039B0D
:10B9A000049A94466344180033003A002900254C59
:10B9B000A047002FC8D04B462B70EE730096049B17
:10B9C0002A0006A90398204CA047DCE7174B9847AC
:10B9D000BEE700239846042702E00023984610277C
:10B9E000039B002B0AD0002D08D0049B9B46B34438
:10B9F00005975B46DB197F2B00DC4EE7084B1B7875
:10BA0000012B00D146E70E4B984701200BB03CBC00
:10BA100090469946A246AB46F0BDC0468104002040
:10BA2000800400208DC40000FC66010035B60000D3
:10BA3000880000204DC5000070040020374D010033
:10BA4000DDC4000041BB0000B5BA0000194D010083
:10BA5000F0B585B004000E000F290FD90D00103D80
:10BA6000EDB22D0901352D0145190F4F00212000A0
:10BA7000B8471034AC42F9D10F231E40002E01D13B
:10BA800005B0F0BD320021006846084B98471022EF
:10BA9000921B300068440021054B984700216846FE
:10BAA000014B9847ECE7C046E1C40000374D010068
:10BAB000494D0100F0B587B00500009101921C00CE
:10BAC0000CAB1E78002200210020184FB84700213F
:10BAD0000198174B9847002202210020B847002CFC
:10BAE00008D128193100134B98470098124B9847FA
