:10000000E838002055910000519100005191000006
:1000100000000000000000000000000000000000E0
:1000200000000000000000000000000051910000EE
:1000300000000000000000005191000051910000FC
:100040005191000051910000519100005191000028
:100050004D6A000051910000519100005191000043
:1000600051910000E5790000F5790000057A000063
:10007000157A0000257A0000357A000051910000C1
:100080005191000051910000B58C0000158D0000C9
:10009000758D00000000000000000000519100007C
:1000A000519100000000000051910000000000008C
:1000B0000000000000000000000000000000000040
:1000C0000000000000000000000000000000000030
:1000D0000000000000000000000000000000000020
:1000E0000000000000000000000000000000000010
:106100000B002000B8220020000000000100000069
:106110000A0080003C230020000000000100000075
:1061200009006400D82200200000000001000000E7
:1061300008005000102800200000000001000000AE
:1061400007000003C0240020000000000100000040
:1061500006000001C0230020000000000100000034
:106160000500010093000020000000000000000076
:1061700004000800C02A0020000000000000000009
:1061800003000400E02A00200000000000000000DE
:10619000020010007C000020000000000000000051
:1061A00001001800E81F002085BE0000000000006C
:1061B000B87401000A00014010B5064C2378002B8A
:1061C00007D1054B002B02D0044800E000BF01239B
:1061D000237010BD7002002000000000CC77010089
:1061E000084B10B5002B03D00749084800E000BF5A
:1061F00007480368002B00D110BD064B002BFBD0D5
:106200009847F9E70000000074020020CC770100F5
:10621000CC770100000000007047C046434258415F
:10622000014B18707047C046DC02002010B5054BCA
:106230001A780C2A03D00448044B984710BD043A3E
:106240001A70FBE7AC020020E81E0020F1DA000023
:1062500070B5446882B0A3790500012B18D11E4A9D
:106260001178002916D01D480023020003E00133F5
:1062700002321E2B02D011880029F8D129885A0039
:1062800081526278217812021E330A435B00C252A7
:1062900002B070BD13706178237809021943104B66
:1062A0005A5C022A16D0E379934200D0E271607AF8
:1062B000237A0C4E00900C48B0472A880B4B1A806A
:1062C000637822781B021343094A13801222094B78
:1062D0001A70DDE7E279EAE7DA020020FC1E00200E
:1062E000BC020020956101002C7401000000002018
:1062F000F6020020AC02002010B50D4C23780029D6
:1063000008D1002B0ED00B4B1A78092A01D102328A
:106310001A7010BD002BF6D0074B08489847002391
:106320002370F0E7064B0548984701232370EAE7FE
:1063300097020020AC020020F1DA00009802002051
:106340004DDB0000002912D00C4A13780133DBB278
:106350001370022B03D81222094B1A7070470023C6
:1063600009211370064A1170064A1370F6E71322CA
:10637000044B1970024B1A70F0E7C046F40200207B
:10638000AC020020DA02002010B582B0002804D050
:106390000122084B1A7002B010BD6B46DC1D2100B3
:1063A000054B9847054B2178054898470922014B32
:1063B0001A70F0E7AC0200202DF700009561010093
:1063C00010740100F0B50C2283B0214C002121484B
:1063D000A0471E2202212048A047002178221F4802
:1063E000A0471F4B1F4898471F492048204B9847FC
:1063F0000E2828D0002300221E4F0092019339005E
:10640000083268461C4CA04701225242D3170500AF
:1064100000920193390009326846A047002808D04D
:10642000002D06D03800154B9847154B984703B000
:10643000F0BD3E003C00134D0836A84720700134E3
:10644000A642FAD1EEE706220F4B1A70D2E7C046F9
:1064500085610100B0020020BC020020FC1E00206B
:10646000052F01001D6200001000002034000020F4
:10647000B5F30000980000205561010015CF000021
:106480008593000025620100AC020020F0B5D646DD
:1064900046464F46C0B5C14B86B09847C04B98475B
:1064A000C04E3378132B24D8BF4A9B00D3589F4645
:1064B0000022BE4BBE499A71BE4A1288632A00D19F
:1064C0004EE1895C1A801E229A72BB4AD9710292EF
:1064D0000122BA4C01922278B949009202200B2283
:1064E000B84DA847002804D023780133237009232E
:1064F0003370B54D14212800B44B984780B2002862
:106500003ED106B01CBC90469946A246F0BDB04AAA
:106510001378F92B00D902E101331370012305AD83
:106520005B4216272B8000236F4429003B8002200A
:10653000A84B98479D4C2B8800206380A64B98471A
:10654000A64BA080A64898470C233370A54B9B4DC3
:106550000293012301932B780B220093390023002F
:106560000220984CA0470B23002800D0B3E03370E2
:10657000954D14212800954B984780B20028C0D033
:10658000994B9A4F98461123424613703B7800224C
:106590009C46974CA95C0132E154013391B2DBB2C5
:1065A0008842F7D86044C0B238700328A9D923784C
:1065B000402B00D1EFE06378402B00D1E1E0A378DD
:1065C000402B00D1DBE0E378402B00D1CDE0042864
:1065D0002ED02379402B00D1C9E0052828D063793B
:1065E000402B00D1C5E0062822D0A379402B00D152
:1065F000C1E007281CD0E379402B00D1C5E0082872
:1066000016D0237A402B00D1C1E0092810D0637A3C
:10661000402B00D1BDE00A280AD0A37A402B00D13C
:10662000B1E00B2804D0E37A0C20402B00D1A4E089
:106630000130704B201898475E4B85B29A461D80FA
:106640006D4B0A21EB182800092B4AD96B4B984750
:1066500083B2994628006A4B0A2198474A46544B10
:10666000995443461D78674B994600230C2200211C
:1066700020003B70C847112D00D142E7357040E73C
:10668000564B574898470C23337071E75E4B5F4871
:106690009847534B5E4A5F499A60002219611A730A
:1066A0005D4B01241A70FA235C489B0083605C4BAD
:1066B00004730361494B98473378042B52D03470EC
:1066C00017E78022574B920405210020564CA04723
:1066D000092333700DE72B7801332B7009233370B6
:1066E00046E7474B9847474B1E2289B230489946A8
:1066F00098470122324B52421A806323524613803C
:106700004A4B1B78002B1CD11222414612250A70DD
:106710002000063A00213B70C8473570F1E600239F
:10672000434C1370220003E0013302321E2B0BD0C6
:106730001188D8B20029F7D00A2807D1092333706D
:10674000ECE643461D7890E71E23A18F1E335B00C5
:10675000E25A184B1A801A4B198013233370DDE666
:106760004978AFE604333370C3E6032060E70420C2
:106770005EE705205CE706205AE7013858E702206B
:1067800056E7012054E70A2052E7072050E7082087
:106790004EE709204CE700204AE7C0464DF60000CE
:1067A0004DBE0000AC020020C07301008C0200202E
:1067B000BC020020F602002045630000F902002020
:1067C0000000002011F80000E0020020C194000049
:1067D000F80200202DF7000095F70000F1DA000024
:1067E000E81E0020F962000002000020DB02002009
:1067F000B00200200161010022FCFFFF4D390100C1
:10680000593A010085610100C50C01005162000088
:10681000102700002D62000097020020980200203F
:10682000196200008963000049240100DA02002097
:10683000FC1E002070B5094B00209847FA21084C37
:1068400089000500A047074B074918602800A047AA
:106850000522064B1860064B1A6070BDCD890000FA
:106860004D3901000400002040420F0008000020C4
:1068700010E000E0802130B50025084B084A1C6874
:106880004902013808D3002CFBD05460956013688E
:106890000B42FCD00138F6D230BDC04608000020C3
:1068A00010E000E00B4B1A68002A05D1EFF31081CD
:1068B000002905D008490A701A6801321A60704729
:1068C00072B6BFF35F8F054A1170034A0131117030
:1068D000F2E7C046FC020020000300200C0000206C
:1068E000084B1A68013A1A601B68002B09D1064B45
:1068F0001B78002B05D00122044B1A70BFF35F8F69
:1069000062B67047FC020020000300200C0000204B
:10691000F0B583B001256B460026294C694613204B
:106920005D709E701D70A0478023264F1B03BB61C6
:106930006B4669461C201E705D70A0476B46694619
:1069400052205D709E701D70A04769463E20A04792
:1069500069463F20A04769462F20A047694614207A
:10696000A0478022184BD2029A618022174BD20591
:106970009A61802212069A61802212029A61802313
:106980005B03BB616B46694653201E70A0478023A2
:106990000F4A9B03116A01AC0B43136204220D4B97
:1069A00021001A800523A570657009200A4D237007
:1069B000E670A84721000C20A84703B0F0BDC046F0
:1069C0004D6D0000004400410045004180440041FD
:1069D0000004004000540042818B00001723002A6D
:1069E00001D018007047064A89008B58002B03D04D
:1069F000834203D01D23F4E78850F2E70023F0E739
:106A0000781F00201723002901D0180070471F2885
:106A100005D8163B8340034AD3600023F5E7C960DD
:106A2000FFDEC046001800401723002901D01800DF
:106A300070471F2805D8163B8340034A9360002304
:106A4000F5E78960FFDEC04600180040F8B5002376
:106A500001260B4C0B4D0C4F237032009A402969D4
:106A6000114206D02A619B00DB59002B00D09847C9
:106A700023780133DBB223700F2BEED9F8BDC0466B
:106A8000741F002000180040781F0020402110B51E
:106A9000144A82B0936905200B439361002301A936
:106AA0000B70114B9847114B052098470122104C51
:106AB00023781343237063785BB2002BFBDB402207
:106AC0000C4B00210C48984710220C4B1A6023787D
:106AD0000E3A1343064A237053785BB2002BFBDB5C
:106AE00002B010BD00040040558A0000B98A0000C1
:106AF0000018004085610100781F002000E100E0DF
:106B000000230122036043608372023302724272E7
:106B1000C3727047F0B500230C0083B001A94B701D
:106B2000CB70237905000B70237A20788B70154B7E
:106B3000984700201F2D00D813480722A37A2A4027
:106B40009200E77A002B01D008231F430F269740BD
:106B500096403A00EB089B00C3189969B1430A4379
:106B60009A61637A002B06D10122AA4043699343BC
:106B7000436103B0F0BD0123AB404269134343615D
:106B8000F7E7C046818B0000001800400100042098
:106B900010B51B4AD3690343D3612023194AFF333D
:106BA0001383137D0130DB0700D410BDC0200B78A8
:106BB00080001B0203401E208C786400204080244B
:106BC00003434878E402C0010343C87880042040AE
:106BD000C02403430879A40200042040082403438E
:106BE0005360936808485B035B0F9C400480936884
:106BF00043804B780371108BC005C00F0001D4E7B0
:106C0000000400400040004104030020F0B5344C73
:106C1000258863886B43834202D218231800F0BD95
:106C20006B1E1842F9D117239542F7D32D4D123B15
:106C30002E7DF607F2D501262B4B2B802B7D1E4295
:106C4000FCD02023FF332B834508002A43D0531E5A
:106C50009C4600236D00CF5C634525DB0233BFB249
:106C60009BB22F8002359A42F5D82379002B30D180
:106C70003F2A2ED8228863885343984205D9802220
:106C80001A4B9201C3189342C7D88022154BD202E7
:106C90005C6822435A602022FF321A831A7DD20791
:106CA0000DD45C600523B9E7CE187678023336023E
:106CB0003E439BB22E8002359A42CCD8D5E70121C3
:106CC00080080B4A4000D8611A801A7D1142FCD01E
:106CD0005C600023A2E72379002BCBD000239DE743
:106CE000040300200040004144A5FFFF00C07FFFD7
:106CF00004A5FFFF124B01001A885B88182053433C
:106D00008B4200D270479200013A1142FAD10D4BEA
:106D100013381A7DD207F5D520228908FF324900A1
:106D20001A83D9610121084A1A801A7D1142FCD0C8
:106D30001C201B8B1840431E98418000E2E7C04690
:106D4000040300200040004102A5FFFF802200B59F
:106D500083B001AB1A700A785A704A789A708A78B0
:106D60001900DA70014B984703B000BD818B000019
:106D7000F0B5454688464E46DE4657464346E0B5A2
:106D80005B88072299460168CB691A42FCD14346C9
:106D90005B7A002B00D08DE04B68554A13404B6066
:106DA00043461B7A002B58D0434642461B88527AF2
:106DB0005B00920313438022120213434B6202686A
:106DC00000230125022608E0147E264208D1013363
:106DD00004899BB29C4200D86AE0147E2542F3D01D
:106DE0000223147E234241D01376528B134247D1A3
:106DF00000239C4620339A4608339B466346072768
:106E00008C46012502261900494500D16DE06346F4
:106E100052465B8B1A4233D00268D3691F42FCD1C1
:106E2000434662465C465B685B5C13550268002320
:106E300007E0147E264207D1013304899BB29C42AD
:106E400026D9147E2542F4D0634604225B8B01319F
:106E50001A42D9D061461E221CE0434642461B8896
:106E6000527A5B00920313434B62A8E7538B5B0794
:106E7000BED5C02351689B020B435360182200E02B
:106E8000412210003CBC90469946A246AB46F0BD5C
:106E900061461222837A002BF3D004680720E3694D
:106EA0001842FCD1C02348689B0203434B60E8E7CB
:106EB0001222E6E743469A7A80234C68DB0223439A
:106EC0004B604A62026800230125022607E0147E17
:106ED000264207D1013304899BB29C4202D9147E19
:106EE0002542F4D001230B7656E761460022D1E714
:106EF000FFFFFBFFF0B54E46DE4657464546E0B580
:106F0000036889469C4663461B6883B01B01DB0F00
:106F1000498801934B465B7A002B00D0FCE0634626
:106F20009B4A5B681340624653604B461B7A002BBA
:106F30003CD04B464A461B88527A5B00920313436F
:106F40008022120213436246536202680023012525
:106F5000022608E0147E264208D1013304899BB240
:106F60009C4200D80AE1147E2542F3D06346884A49
:106F70005B68134062465360022203681C7E224213
:106F800000D1EFE01A765B8B1A4200D0ADE04B46A1
:106F900078221B8801241B0A13434A46527A5B005D
:106FA000920322431343624653620AE04B464A4629
:106FB0001B88527A5B0092031343012213436246FB
:106FC0005362026800230125022608E0147E26424F
:106FD00008D1013304899BB29C4200D8BAE0147EE8
:106FE0002542F3D000230093019B002B00D06FE0DB
:106FF0006346674A5B68134062465360009B002B00
:107000005ED1022203681C7E224200D1A5E01A76DE
:107010005B8B1A4269D15F4A01399246202289B2BC
:107020000023934607270125022651452CD06246AE
:107030005C46528B144258D0C27A002A04D0019A7E
:10704000002A55D0012955D00468E2691742FCD1C5
:107050005A1C92B2282490466246125D4C466468DF
:10706000E2540268002307E0147E264207D1013370
:1070700004899BB29C4249D9147E2542F4D04346F0
:10708000013989B25145D2D19846837A0268002BE2
:107090000BD00721D3691942FCD163465A68C0233B
:1070A0009B0213436246536002680721D369194269
:1070B000FCD128236246D25C4B4641465B685A5459
:1070C000009803B03CBC90469946A246AB46F0BD42
:1070D0004B465B88012B00D08AE763465A688023C1
:1070E000DB0213436246536088E741230093E7E7DE
:1070F0000029A9D1624654688022D20222439846D0
:1071000064460139626089B24346BBE712230093AB
:10711000837A002BC9D0BCE74B469A7A63465C68F9
:107120008023DB02234364466360626202680023BB
:107130000125022607E0147E264207D10133048987
:107140009BB29C4202D9147E2542F4D001236246B0
:107150001376E4E61223009346E75A8B520700D4D5
:1071600059E703E05A8B520700D410E7C022596850
:1071700092020A435A6018230093A1E76346044A27
:107180005B681340624653601223009398E7C04641
:10719000FFFFFBFFFFFF0000F0B5DE4657464E46FF
:1071A0004546E0B5050001279D4B89B029600800E0
:1071B00014008A46994698473E00831C9E4033003F
:1071C000984A1430116AC6B20B431362237B06AA95
:1071D000137011003000944B98473000934B984740
:1071E000934B207B0021984753461B681C209B072C
:1071F00006D509B03CBC90469946A246AB46F0BDC8
:1072000053461B6817383B409846F2D15246143318
:1072100013602B6807AE18009A46C8478023337066
:1072200043460090E069B7707370F370276A0028D6
:1072300000D1ACE0022330707370000C7D4BC0B203
:1072400031009B469847002F00D1A5E002233770FC
:107250003F0C3100F8B299467370D847A38A802159
:10726000EB80E38A2B81237E002B00D181E0A26892
:10727000236913430B432421615C002902D0802140
:10728000C9050B43A16A0B432C21615C002979D00D
:107290008022120513432D22A25C002A02D08022F4
:1072A000120413432E22A25C002A02D08022D203B1
:1072B00013435246126800981343524613608023CA
:1072C00014305B00FA255360C0B25B4B98472368CB
:1072D000AD005D43594B05909B4698470090019146
:1072E0006800D84702900391208ED847544B06007F
:1072F00099460F0000980199524A534BC847020023
:107300000B0030003900C8470022504B504FB8479F
:10731000060028000F00D84702000B00300039009B
:10732000C8474C4D02000B0000980199A847029EE7
:10733000039F474D32003B00A8470022464B454D76
:10734000A84732003B00454DA847454FB84780232A
:10735000A26806009B049A4224D04020FF2E00D948
:1073600047E7002342461A4353461643DE60002097
:107370003FE74A463B4B9B781A4013005A1E934105
:10738000D90174E7802189048A4284D180E70021F1
:107390005046354B98474DE701215046324B9847B0
:1073A000070053E7FA2361689B004B43009801995B
:1073B000984602000B00264CA047040040460D00F2
:1073C000D8470022294BC84702000B0020002900A3
:1073D000224CA0470022204B1E4CA047B847041E59
:1073E00013D0234B4146059898470238031B402091
:1073F000FF2E00D9FDE6FF2B00D9FAE6FF221B0481
:107400001204134098462306ACE743465900059BF7
:10741000481E9C46164B60449847431EE7E7C0460B
:107420000579000000040040558A0000B98A000078
:107430005D770000818B0000E98A00005560010043
:10744000C154010095D626E80B2E113E00002440C1
:1074500039480100C15901000000F03F594E0100B8
:10746000ED5F010000200041A5770000000008400A
:107470004D39010007210368DA691142FCD1072167
:10748000DA691142FCD1832202211A751A761A6830
:107490008A431A6000680531C2691142FCD1012299
:1074A0001A607047012310B58372C372014B98476D
:1074B00010BDC046F56E0000002310B58372013385
:1074C000C372014B984710BD716D000010B549089B
:1074D00040230024814202D2180010BD1C00631C0E
:1074E000091A9BB28842F9D94023FF2CF4D81480A2
:1074F0000023F1E7F0B5DE46454657464E46E0B577
:1075000087B0934610AA147802008846624340214F
:10751000424507D9080007B03CBC90469946A246B0
:10752000AB46F0BD002B5FD10200002120008A4C49
:10753000A047434600930023202198468A461F39DE
:1075400000278C46414681460193D84600220023FD
:107550003F200291BB460FE0BD4252D0A346009CA3
:10756000019D0291BD4234D8BD4250D011001C0093
:107570000A002300013832D32021494241183AD46D
:1075800064468C4021006446844092185B41049418
:1075900066464C4616430C4200D0320014001D00D3
:1075A00016001F00009A019BA41A9D4122005C4610
:1075B0002B00049D25432C00029D2943019DBD42C3
:1075C000CAD95C460299A346009C019D0291BD4226
:1075D000CAD931003C000A0023000138CCD25F46F2
:1075E0007F42C3463F0C02E00027012B15D05B46CB
:1075F00000211F808EE751466446091ACC402100C5
:10760000C1E7009DB542A9D95C460299DBE7009924
:10761000B142ABD931003C00DDE7220000234E4CE3
:107620000021A04701240B00002102008C4600200D
:1076300000213F26A14618E004000D00200029008B
:10764000A41A9D4100940195644627438B421ED89D
:107650001BD0BC468B4215D812D0009801998246A7
:107660000C0050462100013E13D34F4600184941FB
:107670004C46B740454604432F42DDD00D00DDE7C0
:107680008242EAD982460C00EBE78242E1D96746A2
:10769000DFE7802040218001874200D93AE7414658
:1076A000490F0C003F264146B446C9003E3E0D003E
:1076B000B04600215E4689460597002067460021B6
:1076C0000496A246AC4618E004000D0020002900F4
:1076D000A41A9D414E4602940395009C3443260013
:1076E0008B4228D825D0B1468B421FD81CD0029C93
:1076F000039D20002900013F24D3202464423C192B
:107700001BD44546A540001849414446464604431B
:10771000BE40A34664460096344056463540254355
:10772000D2D05C460D00D1E78242E0D904000D00C2
:10773000DFE78242D7D94E46D5E720244546E41BF1
:10774000E540E0E7049B059F9B46FB00F31ADBB294
:107750005B031F43BFB24AE7AD3C010030B50E4C9E
:1077600083B023780500002B06D0002904D163786C
:1077700083420FD01D200BE001A91320074B0D7091
:1077800098471320064B984701230020657023700B
:1077900003B030BD0020FBE70C030020558A000039
:1077A000B98A00003A4B984243D00AD9394B9842E3
:1077B00017D0394B984232D0384B98421BD000201A
:1077C0007047374B984220D0364B9842F7D1012969
:1077D00043D000293FD002293BD00329EFD13248C2
:1077E000EEE7012931D000292DD002292FD003291D
:1077F000E5D12E48E4E701293FD000293BD00229FA
:1078000037D00329DBD12A48DAE701293DD0002906
:1078100039D002292BD00329D1D12648D0E701291C
:1078200023D000291FD002291BD00329C7D1224809
:10783000C6E7012925D0002921D002290FD003292C
:10784000BDD11E48BCE71E48BAE71E48B8E71E482F
:10785000B6E71E48B4E70320B2E71D48B0E71D486D
:10786000AEE71D48ACE71D48AAE71D48A8E71D483C
:10787000A6E71D48A4E71D48A2E71D48A0E71D484C
:107880009EE71D489CE71D489AE71D4898E7C046BB
:107890000010004200180042001C00420014004288
:1078A00000080042000C004203001F0005005200C7
:1078B00003001300030007000300190002000F007B
:1078C0000500530005003F0005003E0003001E00B8
:1078D0000300010002000E00030018000300160060
:1078E000030017000300060003001200030010004D
:1078F0000300110002000C0002000D000300040050
:107900000300050070B586B001006846154B70CBCA
:1079100070C070CB70C0009B8B4211D0019B8B421A
:1079200011D0029B8B4211D0039B8B4211D0049B40
:107930008B4211D0059B00208B4210D006B070BD49
:107940000020C0B2FAE70120C0B2F7E70220C0B2BF
:10795000F4E70320C0B2F1E70420C0B2EEE705303F
:10796000C0B2EBE73C7401007047C046F8B50C4E5E
:10797000050033780F000B4C002B0DD10A4B182259
:1079800023606360A360E360236163610021074BB0
:107990000748984701233370AD006751F8BDC046D2
:1079A0000E030020100300206979000085610100AA
:1079B000B81F002000B583B06A4609231370013355
:1079C0005370013393700133D3700133137101335A
:1079D0005371034B98476B46185603B000BDC04621
:1079E0000579000010B5024B00201B68984710BDB8
:1079F0001003002010B5024B01205B68984710BDB2
:107A00001003002010B5024B02209B68984710BD60
:107A10001003002010B5024B0320DB68984710BD0F
:107A20001003002010B5024B04201B69984710BDBD
:107A30001003002010B5024B05205B69984710BD6C
:107A400010030020F0B54E464546DE465746E0B5E9
:107A5000050029600B6887B00E0014009B070CD44A
:107A600001270B6805201F4200D1DFE007B03CBCB6
:107A700090469946A246AB46F0BD136B906A984675
:107A8000536BD76A9946002800D1BFE0431C1ED033
:107A90000204000C130CC0B29B46C1094309002923
:107AA00000D0BEE01F3101408C46D349DB018A463D
:107AB000614653445918403109788A46012152469B
:107AC000114200D03CE180235B4500D09AE0002FBA
:107AD00000D1A0E07B1C19D03A043F0C130CF8B283
:107AE0009A46C1094309002900D09AE0C2491F27DC
:107AF0008C460122DB0107406344D91940310978E3
:107B00000A4200D02CE1802353457BD14346002B11
:107B100000D13DE14346013319D043461A04130C0A
:107B20009A464346180CC0B24309C10979D1B249FB
:107B30001F278C460122DB0107406344D9194031DD
:107B400009780A4200D017E180239A455AD14B4662
:107B5000002B00D122E14B46013327D04B461904BC
:107B60000B0C9A464B46180CC0B24309C20958D1B7
:107B7000A14A1F279446DB0163440740DA194032CB
:107B800012789046012294467F32914661464246E1
:107B9000114209D07F08DB1930331A78D2B2014282
:107BA00000D101E113099946CA452BD11320934B0B
:107BB000984722780027012A00D109E1A26863686A
:107BC000617C1343E26813433B43227C002901D0CC
:107BD00080210B43A17C002902D0802189020A4325
:107BE000E17C002902D0802189000A43217D0029FF
:107BF00002D0802189010A430220316803438B426D
:107C000000D1D5E000231C202B602FE7002130009D
:107C10007B4B98473AE701213000794B98470700A2
:107C200058E71F23184040300378FFDE0800754BEB
:107C30009847811C8F40744B14301A6A6946174369
:107C40001F6224236A469846E35CC7B2137038006B
:107C50006E4B984738006E4B984743460021E05CD6
:107C60006C4B98472378012B00D1ABE02A6869461A
:107C7000914680220A71002268464A710121C27130
:107C80008171002B00D18371A36A02AF0293E36A72
:107C900000267B60236BBB60636BFB60584B9B468D
:107CA0005D4B9A46B300F858F1B2002845D0431C0A
:107CB00005D06B461871000CC0B201A9D04701363F
:107CC000042EEFD123786A466B71237CAB71A37CC1
:107CD000EB71237D2B72002353802378012B00D17D
:107CE000A0E0A2686368217C1343E2681343627CCE
:107CF000002A1FD1494A927892071BD4A27C002AFD
:107D000002D0802292021143E27C002A02D080221B
:107D100092001143227D002A02D080229201114359
:107D20004A461268002013434A46136053680B43C7
:107D300053609BE680221343E0E74846D847B6E706
:107D4000624652089446634430331B78DBB29C464B
:107D50001B09014200D0B7E60F2362461340B3E689
:107D60007F08DB1930331978C9B20B09024200D001
:107D7000CAE60F230B40C7E67F08DB1930331978BA
:107D8000C9B20B09024200D0DFE60F230B40DCE64C
:107D9000022130001A4B98478046BBE60321300091
:107DA000174B98478146D6E60F231A409146FBE6CB
:107DB0007368934200D025E7237800206B71237C01
:107DC000AB7153E60C2233681343336023784DE7DD
:107DD0000100134B02AAA069984703001720002B4B
:107DE00000D043E66A46337B127A05309A4200D0CF
:107DF0003CE60C37E2E6C04600440041E98A000058
:107E0000A57700000579000000040040558A0000B5
:107E1000B98A00005D770000818B000000200041DE
:107E2000CD7400000B4B2868984714300A4BC0B241
:107E300098476B4601009A1CA069084B98470300BD
:107E40001720002B00D011E66B464A469B7813732F
:107E500047E7C04605790000E98A0000CD740000BC
:107E600070B543791524012B01D0200070BD047A30
:107E7000002C3AD1002A3AD04A78002A46D002682B
:107E8000127E1A400DD108784109C4093CD11F3235
:107E900002409340CA01264905348C4662449361EE
:107EA000E3E70D786A09EE093FD11F242C401D003D
:107EB000A5402C001E4DD201AC46624454610268BC
:107EC0008C78117E0B4200D09462C379002B0CD1C8
:107ED00004210268137E1942FCD0137E194204D09B
:107EE000538B5B0700D55183936A0024BDE7087864
:107EF0004109C40908D11F2202409340CA010C491C
:107F00008C4662449361B0E79261FFDE08784109D4
:107F1000C40908D11F2202409340CA0104498C467B
:107F200062445361A1E75261FFDE6461FFDEC04637
:107F300000440041F0B54E464546DE465746E0B5A2
:107F40000500BA4B0C0091B0296008009046994694
:107F500098470123226806000520134206D011B07D
:107F60003CBC90469946A246AB46F0BD022722682B
:107F700017301740F3D1B01C8340AD4A1436116A54
:107F8000F6B20B4313622D239A46434652469B5C3E
:107F90000AA90B703000A74B98473000A64B9847B2
:107FA000524643460021985CA44B98474346DB7AEF
:107FB00042466B712423D35C0CAEAB712523D35C9A
:107FC000EB71D37E2B72137F6B722B6818009A466D
:107FD000C847434637801A8A802314300292DB0157
:107FE0009A4200D1CEE000D8EAE0C023DB019A42F9
:107FF00000D1F3E080231B029A4200D0E9E0032382
:1080000009930023089343461B6842460393434663
:10801000DB68049343465B69059343461B7E0693E6
:108020002623D35C079353689B46002B00D1B3E013
:1080300080235B059B4500D0ACE02723D25C002366
:10804000002A00D1E6E04246527E002A03D0424692
:108050005146927E8A7352469381049A039B029FF3
:108060001343059A13435A4613431F43069B424644
:108070001B021F43079B5B071F432723D35C002B77
:1080800001D104331F43434642465B7E127F9B026D
:10809000520213434246527F4146120213432422A6
:1080A0008A5C5204134325228A5C897A12041343A2
:1080B0004246D27A1143194343461B89FF2B00D114
:1080C00091E080225204174319432C234246D35C8B
:1080D000002B03D15A4B9B789B0701D580231F436C
:1080E0002A68D369002BFCD1534659602A68D369AA
:1080F000002BFCD1524608A917604B73CB738B73CE
:1081000043461B6B80220C9343465B6B00277360D6
:1081100043469B6B0A73B3604346DB6BF360494B8A
:108120009B46494B9A46BB00F058F9B200282ED026
:10813000431C05D008AB1873000CC0B20BA9D04784
:108140000137042FEFD12800002118223F4B0C30BB
:10815000984700220023EA85AA626A62AA85303223
:10816000AB540132AB540132AB540132AB542868EA
:10817000C8470400364B37499847374BA400E550B1
:108180000020ECE608230993002308933BE7200036
:10819000D847CDE7002356E727234246D35C002B80
:1081A0002AD041464046099B32000093896A089BC9
:1081B000006A2A4FB847002800D0D0E6338842E74B
:1081C00080239B019A4204D1102309930F3B08930B
:1081D00019E7102309930023089314E70823099350
:1081E000073B08930FE74346DB7E002B00D16CE78B
:1081F0008023DB041F4368E7136AC0B21F00184BDB
:108200009847099B010000933200089B3800134FE8
:10821000B847D0E743461B6AC0B21F00104B9847CF
:10822000320001000F4B38009847C4E70579000081
:1082300000040040558A0000B98A00005D77000004
:1082400000200041A5770000818B000085610100BE
:108250006D790000FD830000B81F0020F574000058
:10826000E98A0000CD740000C2791C23002A01D1E4
:1082700018007047C28D173B002AF9D1026811859A
:108280000221137E1942FCD00023F1E710B5827958
:1082900003001C20002A00D110BD9A8D1738002A37
:1082A000FAD11B6804321C7E2242F5D0588BC0B232
:1082B000840605D00224044206D05C831A20EBE732
:1082C0001B8D00200B80E7E7024202D05A831E205C
:1082D000E2E70122024202D05A831320DCE7102297
:1082E000104202D05A834220D6E720221042E7D023
:1082F0005A834120D0E7C046F0B5DE4657464E4689
:108300004546E0B5172383B0002A07D1180003B013
:108310003CBC90469946A246AB46F0BD8379002B03
:1083200001D11C23F2E70225AB46013DAA460F35D9
:10833000A946314D00260423A846013A046892B2AA
:10834000257E2B4207D12C4D02E0013D002D0AD0A5
:10835000277E3B42F9D08579002DE2D0858D002D16
:1083600003D00523D2E71223D0E705682F7EAC4661
:108370003B42F6D06F8B3F25FFB23D4207D05D46B2
:108380003D421BD05B4665466B831A23BEE76546BC
:108390002D8D771CBFB2ADB201978D554779012F56
:1083A00006D0019E013A92B24245C9D10023ADE701
:1083B000019F02362D0AB6B2CD55F3E73B4203D0FA
:1083C00065466B831E23A1E755463D4204D05346C4
:1083D00065466B83132399E74D462F4204D04B46E5
:1083E00065466B83422391E720252F42CFD020237F
:1083F00065466B83412389E7FFFF0000F8B5624BB8
:108400008000C5582C68E369002BFCD1237EA67D33
:1084100031221E403023AF5CEB5C1F40012333420E
:1084200019D0EA8D002A4DD0AA6A511C1378A9628E
:108430006979DBB2012900D175E09BB2DB05DB0D68
:108440002385EB8D013B9BB2EB85002B03D10133E0
:1084500023750133A3750223334205D0002223750F
:108460003133EA54FB073BD40423334212D0AA8DA4
:10847000002A25D0638BDBB21A0735D5372213408B
:1084800035D002221A4254D01A213223E954628391
:108490007B0759D41023334203D0237523763B4204
:1084A00016D12023334203D0237523763B0713D400
:1084B0000823334203D023752376BB0604D4F8BDCA
:1084C0002375E7E72375C6E72B6A28009847F6E788
:1084D0002800EB699847E4E72800AB699847E7E78D
:1084E0002800EB689847BFE73F221340C9D1238D8E
:1084F000696ADB05DB0DDAB20A706A6A511C6962CF
:108500006979012929D0AB8D013B9BB2AB85002B4A
:10851000C0D1042222752E32AB54BB07BAD5280035
:108520002B699847B6E75178023209020B43AA62D9
:1085300084E704221A420BD101221A4213D01321DC
:108540003223E9546283A3E728006B699847A1E7C7
:108550001E213223E95462839AE71B0A53706B6A27
:1085600001336B62CFE710221A4204D0422132233A
:10857000E95462838CE720221A4200D188E7412126
:108580003223E954628383E7B81F002010B508281E
:108590002DD81C4B80001B589F468020000210BD28
:1085A000194B5869FBE7194B19481B6A9B059B0F30
:1085B000D840F4E7144C002023689B07EFD5102225
:1085C0001249CB681A42FCD0242322681340042BA2
:1085D0000FD01048E3E70C4B1869E0E750230B4A33
:1085E0000020D35C5B07DAD5074BD868D7E70020BB
:1085F000D5E7094B00209847A3681B041B0C584380
:10860000CDE7C04654740100280300200008004054
:1086100000127A00006CDC02E98A000010B5037ACF
:1086200042899B069205920D1B0C1343174A536017
:10863000C179837984880B43418821430B43417876
:10864000C9010B4313600378042B10D0202B0DD1EC
:10865000037B018A9B060B43C1890D480904014035
:108660000B43936011680B4B0B43136010BD017BF0
:10867000048A8906C0892143054C00042040014337
:10868000916011680B431360F0E7C0462803002097
:108690000000FF0324040000F0B54E464546DE46C8
:1086A0005746C2221E21E0B5724BD2009A60724A30
:1086B0000026536889B08B431A390B435360032358
:1086C00003AD6E4C2B70F0B229000136A047252E69
:1086D000F9D18021674B6A4F09029A8A7961042196
:1086E0000A4308210A4310218A4320210A4365498D
:1086F0000A40C021C9000A4363490A4002219A8204
:108700009A8A0A439A82DA681142FCD080209A8AB7
:1087100002439A825D4A9E69904612685C48D20480
:10872000520E064012043243F92004269A619A69D7
:10873000C00032430243544802409A619A6911438F
:10874000996100230022AB71EB716B7043466A8024
:10875000AA803F326A812E701B689B0E3F2B00D18E
:1087600086E02B724B4B28002B8203232B731F2395
:10877000EB81404D484B98472B6A484A00261340EE
:1087800002222B622B6A924613432B62444B98477A
:108790006B466A465E701E725E72052313701B3351
:1087A0009B4601933F4B69460120994698473E4BB3
:1087B0000120984698476B466A465E705E720423B5
:1087C00013705B46012201936B46694602201A72C0
:1087D000C8470220C0476B4603225E701A701E72A3
:1087E0005E725B46694604200193C8470420C04777
:1087F00001226B46694600201A70A0472B4B0020CF
:10880000984752463B6813433B60AA840E32EB689C
:108810001A42FCD0BB681021EB627B68154AAB6240
:108820000023AB84D3681942FCD03B6811499BB24A
:108830009384D022CB681340D02BFBD100231C4A59
:108840006946137253729372D372012201926A467F
:10885000002053701372537207331370C8470020FF
:10886000C04709B03CBC90469946A246AB46F0BD15
:10887000203B76E70008004000400041558A000098
:10888000280300203FF8FFFFFFEFFFFF2460800078
:10889000FFFF80FF1BB7FFFF1D8600003FFCFFFFAF
:1088A000B5880000D98800008D890000B98A0000D1
:1088B000000400400821064A93690B439361012399
:1088C000044A0739137013781942FCD17047C04627
:1088D00000040040000C004070B50B7806001B023D
:1088E00003431D004B780400002B02D08023DB02E1
:1088F0001D434B7A002B02D080231B031D43486885
:1089000001280FD9431E18422FD1022833D0022349
:10891000002401345B009842FBD8240280235B03CF
:1089200034431D430B7A002B02D080239B031D434D
:10893000124A53785BB2002BFBDB114B9847114B6B
:108940000E4A1E7053785BB2002BFBDB0B49946020
:108950004A7852B2002AFBDB80224B685202134055
:108960002B434B60084B984770BD802304029B0249
:1089700034431D43D6E70024D0E7C046000C004036
:10898000A5680000080C0040E168000010B5040074
:108990000A4A53785BB2002BFBDB094B9847094B23
:1089A000064A1C7053785BB2002BFBDB80235168B6
:1089B0005B020B435360044B984710BD000C004012
:1089C000A5680000040C0040E168000070B50400D8
:1089D000194A53785BB2002BFBDB184B9847184BB6
:1089E000154D1C706B785BB2002BFBDB6868154B78
:1089F000C004C00E98470600114B0F4A1C706D68EA
:108A0000114BED02ED0F1C7053785BB2002BFBDBBA
:108A100091680E4B09020C0C9847002D03D00134CD
:108A2000E640300070BD012CFBD930002100084B1E
:108A300098470600F5E7C046000C0040A568000016
:108A4000040C00408D850000080C0040E168000027
:108A50004D39010070B504000D78114B2D0205430E
:108A60009847104B104A1C70104C63881B05190F57
:108A700063881340638063880D4A134080226380BB
:108A8000D20163881342FCD162880B020649ADB261
:108A90000A4013436380074B9847658070BDC0460A
:108AA000A5680000020C0040FFF0FFFF000C004032
:108AB000FFBFFFFFE168000010B50400064B9847B8
:108AC000064B074A1C7080235188DB010B435380FF
:108AD000044B984710BDC046A5680000020C00403A
:108AE000000C0040E1680000F8B504001C4FB847D6
:108AF0001C4B1D4D1C706C881C4E2405240FB04768
:108B00006B785BB2002BFBDBB847194B164D1C7022
:108B10006B785BB2002BFBDB6868164BC004C00EA1
:108B200098470700124B104A1C706D68124BED02FB
:108B3000ED0F1C7053785BB2002BFBDB91680902D0
:108B40000C0CB047002D03D00134E7403800F8BDCD
:108B5000012CFBD938002100084B98470700F5E7A6
:108B6000A5680000020C0040000C0040E168000015
:108B7000040C00408D850000080C00404D390100B8
:108B800070B5C2090023002A04D12F4A4309944634
:108B9000DB0163441F2210401E3A8240C87800283F
:108BA00031D10878802847D0802400066402204311
:108BB0004C7802252600AE4307D18C78002C37D1A3
:108BC0008024A40220435A604C78013C012C35D902
:108BD000A02415042D0CE4052C4304439C62D024EE
:108BE000150C24062C4304439C62CC78002C09D13C
:108BF000400303D58878012823D05A614978013988
:108C0000012913D970BDA0201404240CC0052043F1
:108C10005A609862D020140C000620439862C878ED
:108C20000028EFD1497801390129EBD89A60E9E7AA
:108C3000C024E4022043C6E70020B9E7034C2040EB
:108C4000C6E79A61DAE7C04600440041FFFFFBFF38
:108C50007047C04610B5054B9847054B9847054BE4
:108C60009847054B9847054B984710BD99860000DB
:108C700011690000518C00008D6A0000518C0000C9
:108C8000931C9B001950022A09D0032A0CD00123FF
:108C900093401A00037E134303760020704710228E
:108CA000037E13430376F8E72022037E1343037603
:108CB000F3E7C04670B50126154B1D682B682A7E68
:108CC0006C7E9B7B14401C4026421AD10226264211
:108CD00011D11026264208D12026264204D06B69E5
:108CE000280098472B689E7370BD2B692800984711
:108CF0002B689E73F0E7EB68280098472B689E73FB
:108D0000E7E7AB68280098472B689E73DEE7C0460C
:108D1000D01F002070B50126154B5D682B682A7E98
:108D20006C7E9B7B14401C4026421AD102262642B0
:108D300011D11026264208D12026264204D06B6984
:108D4000280098472B689E7370BD2B6928009847B0
:108D50002B689E73F0E7EB68280098472B689E739A
:108D6000E7E7AB68280098472B689E73DEE7C046AC
:108D7000D01F002070B50126154B9D682B682A7EF8
:108D80006C7E9B7B14401C4026421AD10226264250
:108D900011D11026264208D12026264204D06B6924
:108DA000280098472B689E7370BD2B692800984750
:108DB0002B689E73F0E7EB68280098472B689E733A
:108DC000E7E7AB68280098472B689E73DEE7C0464C
:108DD000D01F00200E4B0100180070B584B001AA0E
:108DE00070C870C2019A914208D05A68914208D066
:108DF0009B6800208B4207D004B070BD0020C0B239
:108E0000FAE70120C0B2F7E70230C0B2F4E7C0468B
:108E100078740100F0B54746CE4680B5A74B87B0C1
:108E200003AD0F00904619002A0004009C4649C972
:108E300049C2039ABA4200D10DE163465A6897428B
:108E400000D10BE100229B6891469F4200D108E1CE
:108E50001B2301AE337001337370B37080231B0189
:108E60002B8080235B016B8080239B01AB800023E0
:108E7000A360E36023616361237663764B46904A87
:108E80009B009C50434627609B78082B0AD0237197
:108E90003B8801220520DB0709D507B00CBC9046B2
:108EA0009946F0BD4A461720D207F6D5EFE7FB7B7F
:108EB0001730DB06F1D4022339880B40EDD141464F
:108EC000097C002900D0D2E043461B7F002B00D054
:108ED000D9E04B467B4A5B00116AEB5A0B431362A5
:108EE00043469B78082B00D1DFE043466A461B7857
:108EF000694613704B46F55C734B28009847734BDB
:108F0000280098474346424619899B880B4391782D
:108F100092791143194343465B78002B02D080239A
:108F20001B0119432268D37B5BB2002BFBDB43465A
:108F300039805B7B002B00D096E001210022434664
:108F40009B7B002B00D111002268D37B5BB2002BEE
:108F5000FBDBFF233B71002905D02268D37B5BB28A
:108F6000002BFBDB79714346997ADB7A002B01D029
:108F70001023194343461B7B002B01D020231943A8
:108F80002268D37B5BB2002BFBDBB9712268D37BF9
:108F90005BB2002BFBDB2379042B1ED0082B41D0C6
:108FA0001720002B00D078E7D37B5BB2002BFBDBD4
:108FB00043461B8D3B822268D37B5BB2002BFBDBDD
:108FC00043465B8D3B832268D37B5BB2002BFBDB8C
:108FD00043469B8D00207B835FE7D37B5BB2002BF6
:108FE000FBDB42462823D35C3B742268D37B5BB215
:108FF000002BFBDB42462923D35C3B752268D37BE5
:109000005BB2002BFBDB42462A23D35C3B76226813
:10901000D37B5BB2002BFBDB2B234246D35C0020CF
:109020007B763AE7D37B5BB2002BFBDB43469B6A44
:109030003B612268D37B5BB2002BFBDB4346DB6AE0
:10904000BB612268D37B5BB2002BFBDB43461B6B0F
:109050000020FB6121E700239946F9E601239946A8
:10906000F6E602239946F3E60521042267E702A902
:10907000CB7043461B7E8A700B704346187D144BA1
:109080004A70984720E7002202A9CA70242042466D
:109090000123121812788B700A704B7020224346FD
:1090A0009B1818780A4B984713E74B46591C490000
:1090B000106A6B5A0343136217E7C04678740100C5
:1090C000D01F002000040040558A0000B98A00002B
:1090D000818B00000268D37B5BB2002BFBDB037942
:1090E000042B0AD0082B06D00020002B00D070479C
:1090F000108A80B2FBE71069F9E7107CC0B2F6E78E
:1091000010B50468E37B5BB2002BFBDB0379042B17
:1091100016D0082B0CD01720002B00D010BD172024
:109120000129FBD80C3192B249000A530020F5E71F
:1091300017200129F2D8063189000A510020EDE7F5
:1091400017200129EAD8D2B261180A760020E5E793
:10915000FEE7C04625492648F8B5814209D0254B8F
:10916000984206D2C243D218920801329200224B92
:1091700098472248224B984207D2C243D2189208FD
:109180000132920000211F4B9847FF211E4B1F4ABE
:109190008B4393609023032502240C2708261C4A46
:1091A000FD395B00D1501B4AD378AB432343D370C6
:1091B000D378BB433343D3703022174B987B904313
:1091C000202210439873997BB943314399738021CE
:1091D0009A7BAA4322439A73104A53680B43536005
:1091E0000F4B98470F4B9847FEE7C046CC770100DE
:1091F0000000002070020020736101007002002056
:10920000E82A0020856101000000000000ED00E078
:109210000070004100500041004800410040004102
:109220000D610100C1ED0000F0B5C6460C0000B5AF
:109230009046002812D1002A0DDD0A4E0A4D8F18E3
:10924000210030682B6801349847BC42F8D1404671
:1092500004BC9046F0BD00239846F8E701235B422A
:109260009846F4E7E41F0020DC1F0020F0B5C64656
:10927000013800B50E001500022810D80024002A7D
:109280000FD00A4B0A4F984602E00134A54208D09D
:109290004346315D18683B6898470028F5DA012499
:1092A0006442200004BC9046F0BDC046E41F00208C
:1092B000E01F0020044A1368002B03D01818106028
:1092C00018007047014BF9E740030020E838002000
:1092D000012040427047C04680239B0100204B6024
:1092E0007047C0460120704700207047F0B583B03A
:1092F0006B469C1D002306000F00054D23802100B6
:109300003000A8470028FAD123883B7003B0F0BD95
:109310008D82000070B50600034D8CB22100300034
:10932000A8470028FAD170BD6982000010B582B04C
:109330006B46DC1D012221000D4B0E48984772B68A
:10934000BFF35F8F00230C4A0C49137024780B780D
:109350000B48C4549B2B09D00133DBB20B700123A3
:109360001370BFF35F8F62B602B010BD0023F5E744
:10937000F9820000440300200C00002015040020A6
:109380007803002070B590B06946FF2280230A81DF
:109390000222DB0500930023FF320992D53A8B5459
:1093A00001328B548B72CB720B8201930A9305931B
:1093B00013238B7680235B030393314B00220C93A2
:1093C000304B314C0D9301235B420E930F93962348
:1093D0001B0208932D4BCA760A760A774A764A779B
:1093E0001C602B4A2B4B2C491A602C4A2C4B20001A
:1093F0001A606A462B4B98472B4E2C4D3368002140
:109400009868A847336800215868A8472568284B02
:10941000280098471F2318401E3B8340254A1360AD
:109420002268D369002BFCD102222B6813432B60E6
:109430002368DA69002AFCD18022596852020A4363
:109440005A600122E271DA69002AFCD1DA69002A45
:10945000FCD18022596892020A435A600122A2710B
:10946000DA69002AFCD114490020144B98470422E1
:10947000094B9A750F4BFD32FF321A6010B070BD68
:10948000030004000300050044030020E41F002043
:1094900015930000E01F002000080042ED9200003C
:1094A000DC1F0020357F0000A00000209D6201002D
:1094B000B579000000E100E02D9300006D79000017
:1094C000F0B5224B224D1B782E780400B34225D3F1
:1094D0009A1B2048D2B20270002A27D09B2A27D993
:1094E0009C222B700270081C9C2928D8C0B200282E
:1094F0001CD0411EC9B201316118174E03E001337F
:10950000DBB2A14208D0F25C227001349B2BF6D171
:109510000023DBB2A142F6D12B70F0BD1A00643AF1
:10952000921B0C48D2B20270002AD7D10020F4E777
:10953000D7B2081CB94204D8C0B23300D7E7101C18
:10954000D4E7101CC0B23300D1E7C0461504002098
:109550001404002016040020780300207047C04641
:1095600070B51500440304481A0009186118280052
:10957000024B984770BDC046002100007361010096
:10958000F0B54E464546DE465746E0B52F4C400303
:10959000091993B01E000B1800932D4B90461B68C1
:1095A000002B00D098473F254027009B1D405C1BA7
:1095B0007F1BB74200DD3700BBB201934022FF2181
:1095C000244B02A8984702AB9C46234B65443A00C3
:1095D0004146280099469847204BAB469A46984703
:1095E0001F4D402202A92000A8470528F9D01D4B95
:1095F0009847019BB844F61A009BB6B2DC19002EBE
:109600001CD0371C402E00D940274022FF21114B8F
:10961000BFB202A898473A0041465846C847D047CB
:10962000402202A92000A8470528F9D0F61B0D4BBF
:10963000B6B29847E419B844002EE2D113B03CBC4E
:1096400090469946A246AB46F0BDC04600210000B8
:10965000180400208561010073610100A568000005
:109660000D6C0000E1680000FF2370B5440307485B
:10967000074D24189C4380239B01E61820000134E9
:10968000FF34A847B442F9D170BDC04600210000A4
:10969000F56C0000F0B5154E40038E1985B015002D
:1096A0008619002A1CD0124F2C1C102D00D9102412
:1096B000A4B2220031006846B8476B461B78FF2BE6
:1096C00010D1002303E06A46D25CFF2A0AD101339D
:1096D000DBB29C42F7D82D1BADB23619002DE3D179
:1096E000012000E0002005B0F0BDC04600210000D0
:1096F00073610100F0B5C64600B5184F4003CF199D
:1097000084B014001E00C719002B25D0144B9846B6
:10971000351C102E00D91025ADB22A00390068463C
:10972000C047002307E0217801348A420AD101337F
:10973000DBB29D420BD96A46D25C002CF3D1FF21EB
:109740008A42F4D0002004B004BC9046F0BD761BE1
:10975000B6B27F19002EDBD10120F4E70021000012
:109760007361010010B5064B1B68002B03D09847AE
:10977000002800D110BD034B1878034B9847F9E738
:109780009C0500200D00002069960000F0B54E46B3
:10979000DE4657464546E0B58BB00491938800936A
:1097A000D38802930723D3569946002B00DA92E020
:1097B0004D4B80469B464D4B5C469A46CB465B469E
:1097C000002B00D18AE0029B013BFF3B9BB202933E
:1097D00080235B001E00464A9446009A634403932C
:1097E00093199BB201931900914234D013002200C7
:1097F0001C0043469146B0461E00019F049D002D6B
:1098000014D0102306AA29003000D04706AB9A884E
:10981000BA4207D2DB88D3189BB2A34202D9BB421B
:109820003AD21C0006AB5D89002DEAD14C46B04609
:109830005B46013B5BB29B460133C0D1A346584611
:109840000BB03CBC90469946A246AB46F0BD3300F7
:109850004C4646469846264A04E0013EB6B20132DE
:10986000002E14D0002A15D01378210A4B40190974
:109870004B4024025C4019034C405B015C40A4B2A5
:10988000002AEAD1013EB6B2FF23002EEDD1019BA2
:109890000093CDE7FF23E8E7B91A89B2A24214D9B1
:1098A00006AB5B8905930B00039AFF1ABFB2002A2F
:1098B00007D010354919C91AD21A89B2300003925B
:1098C000D047A742C3D0059D99E7049A3B1B9BB2A2
:1098D000009C0592E8E7044B9B46B0E7029E331ECE
:1098E00000D078E7AAE7C046FFFF000061950000BE
:1098F0004C040020412370B586B001ACA370133333
:10990000E370013B2371053B63712833A371443B32
:10991000E3711B4BA0601B88C04323826B46E06051
:109920001021184A981D04E0013989B2013000293C
:1099300014D0002822D00378150A6B401D096B4013
:1099400012025A401D036A405B015A4092B200283D
:10995000EAD1013989B2FF230029EDD10A4D2280D5
:109960002878220012230021084EB04722002878D0
:1099700012230021064CA04706B070BDFF23DBE791
:109980009A050020FFFF0000A0050020819500003F
:10999000F5960000F0B5DE464E4645465746802215
:1099A000E0B50600654B85B00291520018000C002E
:1099B0009846FF21624B9847F088624A002805D1FB
:1099C0001AE0013880B20134002815D0002C00D1F3
:1099D00089E02378110A4B4019094B4012025A4082
:1099E00019034A405B015A4092B2002CE9D1013878
:1099F00080B2FF230028EDD1328034000E20514A7E
:109A000004E0013880B20134002814D0002C68D062
:109A10002378110A4B4019094B4012025A4019038E
:109A20004A405B015A4092B2002CEAD1013880B220
:109A3000FF230028EDD1F2814346320013CA13C33D
:109A400012681A60F288029B15001035ADB2002B27
:109A500051D080235B009D4247D93B4A1027924654
:109A6000168800229146394A0393934611E05346E3
:109A70001E883F233F36A6199E435346019AB6B22D
:109A80004A442D1B1E80ADB293B299460027002D8B
:109A900020D0039B2C1C9D4201D92D4B1C88434692
:109AA000A4B2D819E31B1A00029B01924B4419007F
:109AB000284B98475B463100187842462300264FD2
:109AC000B8475B463100187842462300234EB04722
:109AD0000028CCD105B03CBC90469946A246AB4686
:109AE000F0BDFF2395E7FF2374E74046029910304D
:109AF000184B9847F288144B9A461D88EF2A1ADDB6
:109B000080246400114B42469B46187829002300AC
:109B1000114FB8475B4642461878290023000F4C86
:109B2000A04753461B88F2884F339B183F2293432C
:109B300052461380CEE7103294B2E3E74C04002083
:109B400085610100FFFF0000A2050020A0050020A4
:109B5000847401007361010081950000F596000096
:109B6000F0B5DE4657464E464546E0B5B448D7B058
:109B7000B44B98470023B44A00261380B34AB44C30
:109B80001380B44A00211380B34AA3461380B34B19
:109B900011AA1B789A4612235046A047139BB04D3A
:109BA000B04C0793AD4B18780130C0B2012800D8F3
:109BB0001FE200201E70A8478022A84B920118784F
:109BC0000021A0470028EDD08024A74B64001C8012
:109BD000A64B1B78002B00D1A8E200230693069B1E
:109BE000A34A9B009C4662440293538815001C00C4
:109BF00004932100102309AA5046D847002208A840
:109C00008389028143811033C28102829AB221008A
:109C1000984B9146504609AA9847C24308ABD2B226
:109C2000988013095A40944B010A53401003434053
:109C3000520153409BB21A0AC9B251400A0951401D
:109C40001A024A400B035A4049014A4008AB92B2FB
:109C50009B79110A59400B09594013024B400A03E2
:109C6000534049014B4008AA9BB2D279190A51408E
:109C70000A0951401A024A400B035A4049014A401E
:109C800008AB92B21B7A110A59400B0959401302D2
:109C90004B400A03534049014B4008AA9BB2527AF9
:109CA000190A51400A0951401A024A400B035A400E
:109CB00049014A4008AB92B29B7A110A59400B09FC
:109CC000594013024B400A03534049014B4008AA34
:109CD0009BB2D27A190A51400A0951401A024A40ED
:109CE0000B035A4049014A4008AB92B21B7B110A50
:109CF00059400B09594013024B400A035340490194
:109D00004B4008AA9BB2527B190A51400A095140A4
:109D10001A024A400B035A4049014A4008AB8024CA
:109D200092B29B7B110A59400B09594013024B40D8
:109D30000A03534049014B4008AA9BB2D27B190A3F
:109D400051400A0951401A024A400B035A40490146
:109D50004A4008AB92B21B7C110A59400B0959408A
:109D600013024B400A03534049014B4008A9497C68
:109D70009BB21A0A4A4011094A401B021103534080
:109D80004B4052015340640008AA5382FF21220035
:109D90003A4B3B4898473A4B09AA43CA43C3126817
:109DA0001A60314B2B4A1B8817880193DB199BB231
:109DB0006B80A14500D829E100235246CA46019391
:109DC0000DAF103305928021524649008A4500D9D3
:109DD0000A1C2B4992B28C469146D21A634492B225
:109DE000002B00D107E19B18039301998C46624434
:109DF00093B21A000293914245D015008846049C04
:109E0000059E002C13D03A00102321003000D847C3
:109E1000BA88AA4208D2FB88D3189BB2434503D91B
:109E2000AB4200D3CCE098467C89002CEBD10024D7
:109E3000200057B03CBC90469946A246AB46F0BDC8
:109E4000340400204DDB0000600500206205002086
:109E5000619500001C04002048040020A00500209B
:109E60006996000095960000A20500209805002044
:109E7000680500208D97000000FFFFFF856101004D
:109E80004C0400200596AE4B1D884D44ADB21D809C
:109E9000FF2D00D888E08024AA4B64001A8816ABF6
:109EA0009818A949A21AA94B9847A94B16AA1D8828
:109EB000A84B29001878A84E2300B047A54B2900CD
:109EC000187816AA2300A54DA8470028AFD0A04BAC
:109ED0009F4A1B881B1913809A4B9A4A19880023A2
:109EE0001380974B1D88013DFF3DADB21D80002DB5
:109EF0000AD0954B611A9C4689B2944B61442A0062
:109F000016A898478F4B1D8053464A469B1A9BB212
:109F10009A46029A002301925246002A00D052E744
:109F2000059B9A46069B0133DBB21A0006938C4BC5
:109F30001B78934200D952E6854B1C88002D14D023
:109F4000844B2100187816AA2B00834EB047814B12
:109F50002100187816AA2B00804CA047002800D1B9
:109F600065E77B4B1C88764B1D88794B2C19A4B276
:109F70001C8007987B4B01381C807B4B9847041E44
:109F800000D154E73F22724B784D1B8828003F33A5
:109F900093436F4A13805246754B1A70754B98471E
:109FA0002800754B984743E7664B4A461C8816AB1A
:109FB00018196549654B9847624B4C441C80A3E7D0
:109FC000A91A89B2424519D97B8905930B00039AD6
:109FD000ED1AADB2002A07D010340919C91AD21AE5
:109FE00089B230000392D847454500D14AE7059C25
:109FF00007E71870DFE500230393F6E64346019A6E
:10A00000EB1A9046049A9BB20592E0E708AA96895B
:10A010004D4A049D10329219039200220DAC9046D5
:10A02000002E35D05746002D00D100E72200102326
:10A0300029003800D847A288B24207D2E388D31853
:10A040009BB2434502D9B34204D298466589002D9C
:10A05000ECD1ECE62900B31A9BB21031591889B241
:10A06000424566D96589039AF61AB6B2002A05D028
:10A07000C91AD21A89B238000392D8474645D2D1BC
:10A08000334B304A1B88BA4617880193FB189BB2A2
:10A090003A49029A8C4662445380294B1D884D44AC
:10A0A000ADB21D80FF2D37D9802416AB6400D819BE
:10A0B000E21B2549254EB047264B019F187816AA6A
:10A0C00023003900244DA847224B16AA18783900DE
:10A0D0002300224DA847002800D1A8E61C4B1C4AAB
:10A0E0001B881B191380174B164A198800231380ED
:10A0F000134B1D88013DFF3DADB21D80002D00D1E9
:10A1000010E7114B611A9C4689B261442A0016A8D7
:10A11000B0470C4B1D8005E716ABD8194A460B4BD0
:10A1200009499847074B4F441F80FBE6044B1D88A5
:10A1300004E743460022F31A9BB2049D904692E73F
:10A14000480400201C0400204C040020736101001E
:10A15000A2050020A005002081950000F5960000D2
:10A16000980500209A050020F59800004C05002075
:10A170000D0000204DDB0000F1DA00006805002032
:10A1800010B5054B1B68002B03D09847002800D161
:10A1900010BD024B9847FBE79C050020619B000027
:10A1A000F0B54E464546DE465746E0B5A14DA24BBA
:10A1B000287891B01E8800280FD0A04C2388B34285
:10A1C00000D1A0E1012305E09A00A25A591CB24235
:10A1D0000BD00B00DAB28242F6D3002011B03CBCA7
:10A1E00090469946A246AB46F0BD9B00E318069305
:10A1F0005B8808AE19000493914B32001878914F98
:10A200001023B847904BBA461A88002A00D1D1E0F3
:10A210008E4B02931B880793358932812B1C954204
:10A2200000D9131C9DB20023B3807381B3812B002E
:10A23000310010339BB29846854BF28091C991C38F
:10A240000968196080235B00984500D88DE00023E1
:10A250001022C34600930CAF80215B4649008B451A
:10A2600000D90B1C9BB299467949754B8C461E78D8
:10A270004B469B1A62449BB2002A6BD0D2180392C1
:10A2800000998C4663449BB2019399421CD01D00F7
:10A29000009B049C9846002C12D03A001023210009
:10A2A0003000D047BA88AA4207D2FB88D3189BB2A5
:10A2B000434502D9AB4235D298467C89002CECD17B
:10A2C00001208BE75E4B1E78029B614A1C883000A0
:10A2D00021004B465F4DA847594B210018785C4A36
:10A2E0004B465D4CA047002800D176E73F220299FB
:10A2F0000B883F334B4493430B804A465B469B1A83
:10A300009BB29B46019B002200935B46002BA3D18E
:10A310000023494A13804C4A13806A46069B928B5D
:10A320005A805AE7A91A89B2424516D97B89059302
:10A330000B00039AED1AADB2002A07D010340919A8
:10A34000C91AD21A89B230000392D0474545B9D014
:10A35000059CA0E70022039292E74346009AEB1A7D
:10A360009046049A9BB20592E3E7354B049F1B7815
:10A370000CAC9846364B10339B460023AB449946B1
:10A38000002D00D18EE0002F9AD02200102339003A
:10A390004046D047A288AA4207D2E388D3189BB28E
:10A3A0004B4502D9AB425DD299466789002FECD16B
:10A3B000012013E7254B1A88029380239B019B1AE7
:10A3C00032899BB2103292B29A421AD8234A9342EF
:10A3D00000D88AE0184B2D781888002D0ED02388DD
:10A3E000834200D194E0012305E09900615A5A1C90
:10A3F000814209D01300DAB2AA42F6D300235B8867
:10A40000FFDE174B9847E5E79B00E31806935B8850
:10A410003200190004930A4B18781023D047029B8E
:10A420001B880793084B35891A88002A00D0F4E668
:10A430002A00F8E698050020600500206805002045
:10A44000A00500206195000062050020A205002003
:10A450004C04002081950000F59600000F080000D4
:10A46000619B00003900AB1A9BB21031591889B2B8
:10A470004A454BD800224B469146EB1A049F9BB2AB
:10A480005A46ED1AADB2002A05D0C91AD21A89B2BD
:10A4900040469346D0474D4500D074E71E4BF288A6
:10A4A0001B78984631001D4B103231C931C3096801
:10A4B00094B21960029B194A1D8840462300290066
:10A4C000174FB847144B154A187829002300154C2C
:10A4D000A047002800D180E60299F3880A889B18DB
:10A4E0003F224F3393430B8012E70F4F0F4B38003F
:10A4F0009847002800D06DE70D4B38733B610D4B3A
:10A500007B60BB6066E70694230071E66789B7E766
:10A51000069423007BE7C046A00500204C040020E1
:10A5200081950000F59600003404002089DB0000CE
:10A5300081A100001027000010B5184B1B68002BEC
:10A5400003D09847002800D110BD154B1B88002B65
:10A5500006D1144B1B88002BF6D0134B9847F3E71A
:10A56000124A1033118880229201521A92B29BB281
:10A5700093420FD80E4B9A42EFD80E4C0E4B200050
:10A5800098470028E9D10D4B207323610C4B636081
:10A59000A360E2E70B4B9847DFE7C0469C0500202D
:10A5A0006205002060050020A1A10000A205002096
:10A5B0000F0800003404002089DB000081A10000A6
:10A5C00010270000619B0000F0B500234E4657465F
:10A5D0004546DE46D44AE0B513701F3B9946C42376
:10A5E00001269B010025FF249A4697B0764212234C
:10A5F0000CAA00212800CD4FB8470F9B0E9A01935B
:10A600005340013300D1A6E00135EDB2022DEED169
:10A61000C74FFF2C00D154E143463C70012B00D1C1
:10A620009AE1C44B00211D00019380235B002B8025
:10A6300011AB9846200012234246BC4CA04743462B
:10A6400029880793BC4B994200D962E1079BBB4A1A
:10A650001B8A934202D000258B4205D80225B84BB5
:10A660003F311940019B1980102308AA3878AF4C5C
:10A67000A04708AB1A78FF2A00D0F7E25C78FF2CDD
:10A6800000D0F5E208AB9B789C46FF2B00D0F1E2AE
:10A6900008ABD878FF2801D000F015FD08AB1B7976
:10A6A0009846FF2B01D000F02BFD08AB5B79994653
:10A6B000FF2B01D000F040FD08AB9B799A46FF2BA1
:10A6C00001D000F073FD08ABD979FF2901D000F06B
:10A6D00056FD08AB1B7A9B46FF2B01D000F093FD83
:10A6E00008AB5B7A0293FF2B01D000F077FD08AB3B
:10A6F0009B7A0393FF2B01D000F0AFFD08ABDB7A10
:10A700000493FF2B01D000F09DFD08AB1B7B05934C
:10A71000FF2B01D000F0B7FD08AB5B7B0693FF2B4E
:10A7200001D000F0ACFD08AB987BFF2801D000F011
:10A73000B0FDDB7BFF2B00D1EBE0FF230690059003
:10A740000490039002939B46FF219A4699469846AF
:10A750009C46FF24ABE208AB9B7C412B00D053E727
:10A7600008ABDB7C542B00D04EE708AB1B7D532B92
:10A7700000D049E708AB5B7D4E2B00D044E708AB27
:10A780009B7D762B00D03FE708ABDB7D312B01D1E1
:10A7900000F095FD322B00D036E708AB197E4B4612
:10A7A0005940C9B20B095940534608034B40434036
:10A7B00049014B4008A89BB2407E190A4140080954
:10A7C00041401B0208034B40434049014B4008A84D
:10A7D0009BB2807E190A4140080941401B020803D0
:10A7E0004B40434049014B4008A89BB2C07E190A28
:10A7F0004140080941401B0208034B4043404901C6
:10A800004B40202708A89BB2007F190A4140080945
:10A8100041401B0208034B40434049014B4008A8FC
:10A820009BB2407F190A4140080941401B020803BE
:10A830004B40434049014B4008A89BB2807F190A16
:10A840004140080941401B0208034B404340490175
:10A850004B4008A89BB2C07F190A414008094140FB
:10A860001B0208034B404340490108A84B40C01954
:10A870009BB20078190A4140080941401B020803B5
:10A880004B404340490108A801374B40C0199BB2D7
:10A890000078190A4140080941401B024B40080357
:10A8A000434049014B4008A9098A9BB2994200D014
:10A8B000AAE602239846B24200D3A5E616002C0071
:10A8C000A2E6002380261F4A3B709046194B1E4A81
:10A8D00000201E4D1E4C914676009A4603E03878C3
:10A8E0000130C0B23870A847802238789201002128
:10A8F000A0470028F3D0534602201E800123424681
:10A900005B4240421380C8470028E8D00023064A33
:10A91000137001220F4B1A7017B03CBC9046994639
:10A92000A246AB46F0BDC0469805002061950000E8
:10A93000A0050020A2050020FF1F0000FFFF00006F
:10A94000C0FF00009A050020F598000069960000FD
:10A950009596000064050020BC4B10211A0001935D
:10A960001023138011AB9846B94B200099464546F9
:10A97000059710232A00B74CA0472B78FF2B42D114
:10A980006B78FF2B3FD1AB78EF78FF2B3DD1FF2FBA
:10A990003BD12B799C46FF2B00D0EDE26B7998469A
:10A9A000FF2B00D0F9E2AB79E9799A46287A6C7AE4
:10A9B000FF2B00D001E3AB7A0293FF2900D008E31C
:10A9C000FF2800D010E3FF2C00D019E3FF2B00D0AC
:10A9D0004CE3EB7A9B46FF2B00D04FE32B7B03939A
:10A9E000FF2B00D051E36B7B0493FF2B00D052E38D
:10A9F000AB7BFF2B00D053E3EA7BFF2A00D055E36B
:10AA0000954B984785E7AB78EF782A79E9799446B2
:10AA10006A79287A9046AA796C7A9246AA7A029242
:10AA2000EA7A93462A7B03926A7B0492DB43DBB289
:10AA30001A0953401A031600884A5A4072405B01B3
:10AA40005A4092B2130A5F403B095F4012023B0337
:10AA50007A405A4063467F015740BFB23A0A53409A
:10AA60001A001B095A403F02574013037B40520112
:10AA7000534042469BB21F0A7A40170012095740C2
:10AA80001B027B401A003B0353407F017B4057462B
:10AA90009BB21A0A57403A003F097A401B025340C2
:10AAA0001F0013037B40520153409BB21A0A5140CE
:10AAB0000A0951401A024A400B035A4049014A40D0
:10AAC00092B2130A5840030958401302434002034C
:10AAD0005340400143409BB21A0A5440220954405B
:10AAE0001A02624023035A406401624092B2029EFD
:10AAF000130A5E4033095E40130273403203534031
:10AB00005A46760173409BB2190A4A401100120955
:10AB100051401A024A400B035A4049014A4092B23E
:10AB2000039B110A4B4019001B09594013024B406B
:10AB30000A03534049014B409BB204991A0A514001
:10AB40000A0009094A401B02534011034B405201BD
:10AB50005340EA899BB29A420CD0019A1188404B2B
:10AB60001F31194011803F4B994200D948E7059B9E
:10AB70001878FEE62B88002B62D13B4B6C881B7843
:10AB8000002B00D174E34A461188A14200D174E33E
:10AB9000012106E04F468800385A4E1CA0423FD0A3
:10ABA0003100C8B28342F5D898005E1C19004844B1
:10ABB000F3B2890054522C4E019933700E884680AE
:10ABC0002989002924D1002B00D169E31188A142F1
:10ABD00000D163E3012005E08100515A471CA142E6
:10ABE0000DD03800C1B28B42F6D8013BDBB2190060
:10ABF0001D4889000370002352581A60FFDE800050
:10AC00001018013B1849DBB20B709B00D35803604E
:10AC1000E988134B71181F311940019B1980A2E775
:10AC200089004944019806884E8029890029CDD0A1
:10AC3000E9880B4B71181F311940019B198092E76D
:10AC4000019AE9881388C91889E7C046A20500203F
:10AC50006805002061950000619B000000FFFFFF78
:10AC6000F0FF0000FF1F00009805002008AB5C7893
:10AC70009B789C4608ABD8781B79984608AB5B79E3
:10AC8000994608AB9B799A4608ABD9791B7A9B46C3
:10AC900008AB5B7A029308AB9B7A039308ABDB7A31
:10ACA000049308AB1B7B059308AB5B7B0693D243F5
:10ACB000D2B213095A4013031E00DE4B53407340B7
:10ACC000520153409BB21A0A5440220954401B02BD
:10ACD00063401A00230353406401634064469BB2FF
:10ACE0001A0A54402200240962401B0253401C00EF
:10ACF00013036340520153409BB21A0A50400209A9
:10AD000050401B0243401A00030353404246400197
:10AD100043409BB21C0A62401400120954401B02BB
:10AD200063401A00230353404A46640163409BB2C8
:10AD3000180A42401000120950401B0243401A00FA
:10AD4000030353405246400143409BB21C0A6240F9
:10AD50001400120954401B0263401A00230353409D
:10AD6000640163409BB21A0A51400A0951401A0219
:10AD70004A400B035A405B4649014A4092B2110ACD
:10AD80004B4019001B09594013024B400A03534022
:10AD900049014B409BB2029A190A4A40110012091C
:10ADA00051401A024A400B035A4049014A4092B2AC
:10ADB000039B110A4B4019001B09594013024B40D9
:10ADC0000A03534049014B409BB2049A190A4A4076
:10ADD0001100120951401A024A400B035A4049011E
:10ADE0004A4092B2059B110A4B4019001B09594079
:10ADF00013024B400A03534049014B409BB2069952
:10AE00001A0A51400A0009094A401B025340110323
:10AE10004B405201534008AAD2899BB29A420BD0B0
:10AE2000012D2DD0022D24D1019A834B11884F3151
:10AE300019401180FFF706FC019C804B218838786F
:10AE400008AA984708AB1B88834221D008ABDB884F
:10AE500010339BB2012D00D188E1022D00D0DCE03F
:10AE6000019A11883F315B18734919401180FFF72F
:10AE7000E9FB019B1988103189B21980FFF7E2FBC9
:10AE8000019A6F4B11881F3119401180FFF7DAFBCF
:10AE900008AB5A886B4B19786B4B9846002900D148
:10AEA00001E21B88934200D101E20123AC46079ED8
:10AEB00007E0654D9800285A5C1C904200D1C5E01F
:10AEC0002300D8B28842F4D34C1C88000B005E49A2
:10AED00065468C4607966044E1B25A4C9B0021704F
:10AEE0004446E252019B1B8843809C4608AB1B8969
:10AEF000002B2FD1002900D1DBE143461B88934270
:10AF000000D1DAE143460120A846079E1D0005E076
:10AF10008300EB5A441C93420ED02000C3B29942E6
:10AF2000F6D80139C9B22A000B009B00D258002381
:10AF3000444801701A60FFDE2B00454698468000A9
:10AF4000079640443F4B0139C9B219704346890006
:10AF50005B58036008ABDB8810339BB2012D00D136
:10AF600067E1022D5FD1644633493F341B19194014
:10AF7000019B1980FFF766FB6B79E9799846AB79FD
:10AF8000287A9A46AB7A6C7A0293EB7A9B462B7BB3
:10AF900003936B7B04933B0048E5AB79E9799A46D0
:10AFA000AB7A287A0293EB7A6C7A9B462B7B6746C6
:10AFB00003936B7B0493634638E5AB7AC4460293F4
:10AFC000EB7A47469B462B7B03936B7B049343466C
:10AFD0002CE5EB7AD0469B462B7BD44603936B7BC8
:10AFE00057460493534621E5EB7A8A469B462B7BD2
:10AFF000884603936B7B8C4604930F000B0015E58A
:10B00000EB7A9B462B7B03936B7B0493FF23FF21FF
:10B010009A4698469C46FF2708E52188591889B228
:10B020002180FFF70FFB634499B2019B1980FFF762
:10B0300009FBC04600FFFFFFC0FF00008D97000026
:10B04000F0FF0000980500206805002028006546F4
:10B0500084469B000796634401980088588008AB9B
:10B060001B898446002B00D147E773E7EB7AFF206A
:10B070009B462B7B03936B7B0493C7E7FF242B7BBF
:10B0800003936B7B0493FF20C0E76B7BFF24049347
:10B090005B460293F7E7039EFF24B3460296F2E76E
:10B0A000049EFF240396B3460296ECE7FF22049326
:10B0B00003939B460293FF24FF20FF219246904674
:10B0C0009446FF27B2E41B796446984608AB5B7947
:10B0D000994608AB9B799A4608ABD9791B7A9B466F
:10B0E00008AB5B7A029308AB9B7A039308ABDB7ADD
:10B0F000049308AB1B7B059308AB5B7B0693D6E5FB
:10B1000008AB5B798446994608AB9B7904009A4664
:10B1100008ABD9791B7A9B4608AB5B7A029308ABE4
:10B120009B7A039308ABDB7A049308AB1B7B0593F4
:10B1300008AB5B7B0693BAE508AB9B7940469A4621
:10B1400008ABD9791B7AC4469B4608AB5B7A444668
:10B15000029308AB9B7A039308ABDB7A049308ABAA
:10B160001B7B059308AB5B7B0693A0E5019A1188D6
:10B170000F315B18574919401180FFF763FA1B7AAA
:10B18000D1469B4608AB5B7AD046029308AB9B7ACC
:10B190005046039308ABDB7AD446049308AB1B7B81
:10B1A0005446059308AB5B7B069380E508ABD979E1
:10B1B0001B7AC8469B4608AB5B7A4846029308ABAD
:10B1C0009B7ACC46039308ABDB7A4C46049308ABDE
:10B1D0001B7B059308AB5B7B069368E508AB9B7A0A
:10B1E000FF21039308ABDB7A049308AB1B7B059329
:10B1F00008AB5B7B0693FF239A4699469846FF204F
:10B200009C46FF2453E508AB5B7A8A46029308AB61
:10B210009B7A8946039308ABDB7A8846049308AB94
:10B220001B7B0800059308AB5B7B8C4606930C00E8
:10B230003DE5644627490F341B191940019B1980CD
:10B24000FFF700FA08AB1B7B059308AB5B7B06930B
:10B25000FF2302939B46FF21CEE708ABDB7A0493E2
:10B2600008AB1B7B059308AB5B7B0693FF23F1E7E1
:10B27000194A0021100001239BE44946D2E4059BB2
:10B2800004930393E4E708AB5B7B0693049B03936F
:10B29000DEE7069B059304930393D9E71000B0E41F
:10B2A000FF21FF23A4E418000121002315E60A4B27
:10B2B000D2E64246FF23FF2137E6404642E608AB8E
:10B2C0001B8A002B01D0FFF79FF901239846FFF757
:10B2D000F2FAC046F0FF00006805002010B5074BE9
:10B2E0001B78002B01D1064B9847064B064A1A6182
:10B2F000064A5A609A6000221A7310BD6405002045
:10B30000C9A500004C05002065970000581B0000EF
:10B31000F0B557464E464546DE46E0B5974B05002C
:10B32000187887B00C0091469A4600280FD0944FA9
:10B330003B88AB4200D1F0E0012305E09A00BA5A05
:10B34000591CAA423ED00B00DAB28242F6D38D4B92
:10B350001B68002B0AD09847002807D1052007B0AA
:10B360003CBC90469946A246AB46F0BD80232200E5
:10B37000854F9B013E8810329B1B9BB292B29A4232
:10B3800000D9D2E0814A934200D8B6E002AB5D809A
:10B39000002302AA938053819381494610007C4B7D
:10B3A000D48014819847002800D1BCE05346514610
:10B3B0001B7802205A1C0A70714A9B009D52D318B8
:10B3C0005E80CCE79B00FB185A880123002A07D136
:10B3D000BDE79A00BA5A591CAA4200D17AE00B0084
:10B3E000DAB28242F5D300218C4233D0694B6A4EE7
:10B3F0001D809846634B34801B68002B00D18AE087
:10B4000098470028AAD03388002B1AD05E4A103300
:10B41000118880229201521A92B29BB2934200D9B3
:10B4200087E05A4B9A4210D85C4E5D4B30009847EB
:10B4300000280AD15B4B307333615B4B7360B360A0
:10B4400003E043461B88002B04D0584B9847002844
:10B4500000D084E74B46002B4DD053461878002887
:10B460000DD03B88AB420ED0012305E09A00BA5ABA
:10B47000591CAA4205D00B00DAB28242F6D303204F
:10B480006DE79B00FF187D88002DF8D0484BA14444
:10B490001B789A46002C2ED000239B4602AB0193CA
:10B4A000444B2F009846019E10233200390050462D
:10B4B000C047B288944207D9F388D3189BB25B4542
:10B4C00002D99C4238D99B46019B5F89002FEAD163
:10B4D000042044E79B00FB185988002900D183E72A
:10B4E00002AB1A009346324B324E18781023B04705
:10B4F0005B46198978E7002031E7284E284B300059
:10B500009847002805D1274B30733361264B736071
:10B51000B3603E883AE7230076E77B88002B00D1B2
:10B5200015E73B00D8E7012019E7234B98473E88F1
:10B530002CE7214B984788E7A11A89B25A4516D9BA
:10B54000019B5B891E000B004A46E41AA4B2002A44
:10B5500007D01037C919C91AD21A89B25046914674
:10B56000C0475C45C7D0002EB2D037009BE75B4692
:10B570000022E31A9BB22E009346E5E798050020CF
:10B58000680500209C050020A20500200F0800008F
:10B590009599000060050020620500203404002019
:10B5A00089DB000081A1000010270000A1A100009C
:10B5B000A005002061950000619B0000F0B5DE460B
:10B5C0004E4657464546E0B59B46494B87B01B68FB
:10B5D000060001911400002B0AD09847002807D1DB
:10B5E000053007B03CBC90469946A246AB46F0BD3C
:10B5F0008023404D9B012A889B1A220010329BB267
:10B6000092B29A426CD83C4A934214D93B4B187878
:10B6100000280ED03A4F3B88B34266D0012305E0A4
:10B620009A00BA5A591CB24212D00B00DAB28242C6
:10B63000F6D30320D5E7334F334B38009847002823
:10B64000E4D1324B38733B61314B7B60BB60DDE74B
:10B65000B8469B00984443465B8802AA99462D4B06
:10B66000494618782C4E1023B04702AB1A89019B2B
:10B6700004201B199342B4D86946898802AB99808B
:10B680004946DC80598194422DD09B8901339BB27D
:10B6900002AA93815946214B10002C889847030039
:10B6A0000120002B9DD043465C8002AB9B89642B1C
:10B6B00001D8002095E702AB5A88194B194C1A8023
:10B6C0000022194B20001A800F4B98470028F0D118
:10B6D000164B2361164B6360A3600023237380E73E
:10B6E000144B984792E70023D2E7B846B3E7C04629
:10B6F0009C050020A20500200F08000098050020EE
:10B70000680500203404002089DB000081A10000CE
:10B7100010270000A0050020619500009599000009
:10B7200060050020200400206205002039A50000EB
:10B73000B80B0000619B000030B5134B85B01D783D
:10B74000002D0ED0114C238883420FD0012305E039
:10B750009A00A25A591C824206D00B00DAB2AA42C1
:10B76000F6D3002005B030BD9B00E41860880028A7
:10B77000F8D0074B01001C786A4620001023054CC6
:10B78000A0476B461889EDE7980500206805002062
:10B79000A00500206195000030B50E4B1D78002DEE
:10B7A0000ED00D4C238883420ED0012305E09A0071
:10B7B000A25A591C824205D00B00DAB29542F6D843
:10B7C000002030BD9B00E4186088431E9841C0B241
:10B7D000F7E7C0469805002068050020F0B5DE4672
:10B7E00057464E4645460023E0B589B003AA13806C
:10B7F000484B0092984200D182E0430453D4140095
:10B800000723A446C2081840063B834062441178CF
:10B810000B4313702678002398463F4B99463F4BC5
:10B820009A463F4B9B464346DC00A4B2002504E009
:10B8300001340135A4B2082D20D03300EB40DB07E2
:10B84000F6D504A92000C84700280FD0069B002B7E
:10B8500000D098472000D047059B0700019302AB1A
:10B860005989019A2000D84700280FD0002009B03C
:10B870003CBC90469946A246AB46F0BD01239C468F
:10B88000E0444346022B0BD10120F0E702AB5A897A
:10B8900005993B002000234FB8470028C8D1E5E7B1
:10B8A000009B5E78BFE704A91F4B98470028DED0B5
:10B8B00002AB9E89002E2AD0049B00249B4602AB3B
:10B8C0009D1D1A4B9A4607239946063B98466100F0
:10B8D000594402222800D04700992A888C464946BC
:10B8E000D3080A40414691400A0063441978013464
:10B8F0000A43E4B21A70B442E9D363461E788AE779
:10B900000126FE23764216801E40167083E700262D
:10B9100081E7C04602400000B9C0000039B700000E
:10B9200011B30000DDBE0000EDC100007361010035
:10B93000F0B5DE4657464E464546E0B5264B85B047
:10B94000984240D0430414D4244AC308D218072391
:10B950001840063B834011780B4313700020204BA6
:10B960009847012005B03CBC90469946A246AB469C
:10B97000F0BD02A91B4B98470028F3D06B469E8967
:10B98000002EEBD0029B00249B46144B01279A46C5
:10B990006B469D1D144B99460723984661005944F8
:10B9A00002222800C84741462A880134D3080A40A9
:10B9B000390091400A0053441978E4B20A431A70DE
:10B9C000B442EBD3CAE70123FE21044A5B42138051
:10B9D0000B401370C2E7C04602400000A8050020DB
:10B9E00039BE0000EDC1000073610100F0B557469B
:10B9F0004E464546DE460124E0B56C4A07211078E4
:10BA0000220001300840824091462200461C0E4030
:10BA1000B2408FB00192721C0A40924622005546F5
:10BA2000AA4002926A1C15000D40AB465F462500F5
:10BA30007A1CBD4017000F40B846039527004546C5
:10BA4000AF406A1C25000A400497170095409446B1
:10BA5000220001370F40BA400595250006927A1C56
:10BA600011408D4008914946514B07951B78514D27
:10BA700001332340EA5C09900A4200D072E0019948
:10BA80000A4200D07CE002990A4200D07BE0039990
:10BA90000A4200D07BE004990A4200D07BE005997D
:10BAA0000A425CD106990A4200D078E007990A421E
:10BAB00000D077E0013323404C46EA5C224251D16A
:10BAC00001990A425CD102990A425CD103990A4267
:10BAD0005DD104990A425ED105990A423FD1069987
:10BAE0000A425CD107990A425CD108980133DBB263
